:1000000002EF00F0F86AD09E0F0E056E920E046E9D
:100010000F0E076E930E066E0F0E096E940E086E8D
:100020000F0E0B6E950E0A6E0F0E0D6E960E0C6E69
:100030000F0E0F6E890E0E6E0F0E116E8A0E106E61
:100040000F0E136E8B0E126E0F0E156E8C0E146E3D
:100050000F0E176E8D0E166E0F0E196E800E186E27
:100060000F0E1B6E810E1A6E0F0E1D6E820E1C6E11
:100070000F0E1F6E830E1E6E0F0E216E840E206EED
:100080000F0E236EC20E226E0F0E256EC10E246E51
:100090000F0E276EC00E266E0F0E296EC30E286E31
:1000A0000F0E2B6EC40E2A6E0F0E2D6EC30E2C6E0D
:1000B0000F0E2F6EF20E2E6E0F0E316EF00E306E92
:1000C0000F0E336EF10E326E0F0E356E9D0E346EC6
:1000D0000F0E376ECD0E366E0F0E396ECA0E386E9D
:1000E0000F0E3B6EBD0E3A6E0F0E3D6EBA0E3C6E9D
:1000F0000F0E3F6EBE0E3E6E0F0E416EBE0E406E78
:100100000F0E436ECB0E426E0F0E456EB60E446E52
:10011000C150C00B0F09C16E070EB46E08C0E9FFD5
:1001200009C0EAFFEF6A3AC0E9FF3BC0EAFFF00E00
:10013000EF140C09EF6E42C0E9FF43C0EAFFC80E9E
:10014000EF6E40C0E9FF41C0EAFF320EEF6E38C0EB
:0E015000E9FF39C0EAFFEF84ACEF00F00300D6
:020000040030CA
:0E00000000C21E1E008781000FC00FE00F40DF
:00000001FF
;PIC18F4520
;CRC=580A  CREATED="07-Nov-23 14:33"
