:0400000001EF04F018
:08000800046ED8CF05F0E0CF33
:1000100006F00001E9CF0CF0EACF07F0E1CF08F0DD
:10002000E2CF09F0D9CF0AF0DACF0BF0F3CF12F01C
:10003000F4CF13F0FACF14F0F5CF15F0F6CF16F099
:10004000F7CF17F000C00EF001C00FF002C010F0A3
:1000500003C011F09DA030EF00F09EB06DEF00F0F6
:10006000F2A836EF00F0F2B2D1EF00F09DA43CEF21
:1000700000F09EB49EEF00F00EC000F00FC001F043
:1000800010C002F011C003F00CC0E9FF07C0EAFF86
:10009000078E08C0E1FF09C0E2FF0AC0D9FF0BC00C
:1000A000DAFF12C0F3FF13C0F4FF14C0FAFF15C04B
:1000B000F5FF16C0F6FF17C0F7FF045006C0E0FFBB
:1000C00005C0D8FF1000F76AD60FF66E000EF722B3
:1000D0000900F55012002C0F01065D2A94908B70D8
:1000E0009E903CEF00F08F6B906B010E916FDA6A7F
:1000F000D96A946B870E936FEA6A8B0EE96E94C08F
:10010000E2FF93C0E1FF91C092F0D890E550EE027B
:10011000F3508F23F4509023922FF7D78FC0DEFF38
:1001200090C08FF0906BD8B0902B932BD8B4942BB9
:10013000912B91510508E0E1B2EF00F053C0E9FFC7
:1001400054C0EAFFECCF60F0ED52EFCF5FF08A6B66
:10015000896B886B5DC087F08E6B010E8D6F8C6B29
:100160008B6BC1D703C08AF002C089F001C088F050
:1001700000C087F06150875F6250885B000E895B2A
:100180008A5B5F508725636E60508821646E5D6A6C
:1001900060C062F05FC061F094928B729E943CEFFD
:1001A00000F05E2A5E50040802E2010E5E6EF292DA
:1001B0003CEF00F00C2046203D2025660000EA6A56
:1001C0007B0EE96EEF500DE0060E016E006A002E08
:1001D000FED7012EFBD77B0E006E002EFED7EF2E32
:1001E000F3D712008239F00B006E0F0E831400104B
:1001F000836E00008380030E006E002EFED7839076
:100200001200F00E956E8384000083800000833816
:100210000F0B826F83900000838000D000D000001D
:1002200083380F0B816F8390000E956E8239006EBC
:10023000F00E001600508111016E21EF01F0839243
:10024000E0D701C081F001BEFBD77FA083927FB0D1
:10025000838200008394000083908039816F0F0EA9
:10026000811781C082F0BEDF80510F0B816F826FDA
:10027000B9DF1200000E956E2D0E7B6EA0DF83920B
:1002800083948390020E826FADDF696A6950030820
:100290000CE3036A695017DF6A6E7F6A806FCFDFF5
:1002A000050E7B6E8CDF692AF1D79EEF04F08E0E6F
:1002B000006E6AC001F069C002F0036A015209E1F0
:1002C00002C001F0026A080E005E015202E1006AFB
:1002D00008D0D89001BE04D0023601360006F9D706
:1002E000019EF4EF04F07A50D8B471D0006E7E50C5
:1002F000D8B46DD0002604E3810E002668E204D055
:100300007F0E005E64E363E07BC082F07F50821B5F
:100310007B8E7F8E7D508103F4CF84F07C508003F0
:10032000F4CF03F0F3CF83F08103F3508427F4502C
:100330008323000E03227D508003F3508427F45062
:100340008323000E026A032202227B508103F350B2
:100350008327F4500322000E02227B508003F350C7
:100360000326F4500222000E016A01227D507F0212
:10037000F3508327F4500322000E022201227C5006
:100380007F02F3500326F4500222000E01227B501C
:100390007F02F3500226F4500122002A01BE05D04C
:1003A00083370336023601360006000E83AF0AD0CB
:1003B000032A02220122015005E1025003E1035009
:1003C00001E1002A82BF018E82AF019E04D0006A43
:1003D000016A026A036A12006950D8B4A5D0756E2A
:1003E0006D50D8B4A1D0755E05E37F0E7526D8B0E8
:1003F0009BD006D0810E755ED8A096D0D8B494D08C
:1004000075C000F0016A026A036A746A6AC073F018
:10041000738E6BC072F06CC071F0190E756E7050F7
:10042000715E0DE2010E725E0AE2735E08E2745EB6
:1004300006E2742A732A722A7050712628D06F50EF
:10044000725E12E2010E735E0FE2745E0DE2742AB8
:10045000732A6F5072267050712619E3722A17E1C1
:10046000732A15E1742A13D06E508009735E0EE270
:10047000010E745E0BE2742A6E50800973266F5071
:100480007226E9E3732AE7E1742AE5D70380752E23
:1004900001D00BD0D8907136723673367436D8903E
:1004A0000336023601367636BAD776A006D0D89013
:1004B000013202320332763202D0000635E076BED7
:1004C0001ED0D89071367236733674367050715EA5
:1004D00007E2010E725E04E2735E02E2745E1AE3EA
:1004E0006F50725E05E2010E735E02E2745E12E30B
:1004F0006E508009735E03E2010E745E0BE3032A03
:1005000009E1022A07E1012A05E1002A0DE0013292
:10051000023203326AC075F06E50751A75AE02D0A1
:10052000018E06D0019E04D0006A016A026A036A45
:1005300023EF05F07C2C01D003D0400E7D6E01D05E
:100540007D6A010E7B5C7D267D5080097E6E7F6A10
:10055000806F75DECCEF02F07A500C0A05E0060AD7
:100560000BE0020A0FE013D07F6A010E806F67DE96
:10057000020E7B6E24DE10D0010E7B6E020E7C6EAE
:10058000D9D70AD07F6A100E806F59DE05D0010ED0
:100590007F6E7AC080F053DE12000900F6CF6EF055
:1005A000F7CF6FF0F5CF7AF0D7DF6EC0F6FF6FC0F0
:1005B000F7FF6D2EF2D732EF05F07A50B6087A6E5B
:1005C000036A7BC07EF07B8ED8907B327C327D329A
:1005D00003320232013200327A2EF6D77EAE0BD0D1
:1005E000001E011E021E031E002AD8B4012AD8B420
:1005F000022AD8B4032A6BEF03F0D8B203D0EA6A18
:10060000820EE96E006A016A026A036A826B836B7A
:10061000846B856B815180117F107E102CE0200E41
:10062000866FD8907A367B367C367D368237833734
:10063000843785378151855D08E18051845D05E10E
:100640007F50835D02E17E50825D0FE37E50825FCA
:100650007F50D8A07F3C835F8051D8A0803D845FCD
:100660008151D8A0813D855FD880003601360236A1
:100670000336862FD6D782C0EFFF83C0ECFF84C03D
:10068000ECFF85C0ECFF1200E950726E7150746E81
:1006900019E070C07DF06FC07CF06EC07BF06DC063
:1006A0007AF0816B806B200E7F6E820E7E6E1BDE79
:1006B00003C070F002C06FF001C06EF000C06DF0BA
:1006C000742EE7D770C07DF06FC07CF06EC07BF0F9
:1006D0006DC07AF072D703C070F002C06FF001C035
:1006E0006EF000C06DF070AE0DD07206728A6D1E95
:1006F0006E1E6F1E701E6D2AD8B46E2AD8B46F2A73
:10070000D8B4702A3B0E796E9A0E786ECA0E776E48
:10071000766A0A0E746E7150D8B4722AD882EA6A68
:100720006D0EE96E70C07DF06FC07CF06EC07BF026
:100730006DC07AF079C081F078C080F077C07FF02A
:1007400076C07EF05ADF015000520FE17128745CD0
:100750000CE072500CE00F0B745C01E037E272BEEB
:1007600035D072BC04D0200E2DD0200E721672AA85
:100770000CD0729A7150D8A472060050726E2D0E71
:100780007A6EEADE7250006E726A7150745C0AE131
:100790000050726E2E0E7A6EDFDE7250006E200EEA
:1007A0007216000E300E72AA0DD0729A7150D8A433
:1007B00072060050726E2D0E7A6ECEDE7250006E92
:1007C000726A300E002600C07AF0C6DED89279C078
:1007D0007DF078C07CF077C07BF076C07AF0816BDA
:1007E000806B7F6A0A0E7E6E08DF03C079F002C05C
:1007F00078F001C077F000C076F0742E8FD73FEF0D
:1008000005F0F86AD09E078E0F0E1A6E920E196EC2
:100810000F0E1C6E930E1B6E0F0E1E6E940E1D6E31
:100820000F0E206E950E1F6E0F0E226E960E216E0D
:100830000F0E246E890E236E0F0E266E8A0E256E05
:100840000F0E286E8B0E276E0F0E2A6E8C0E296EE1
:100850000F0E2C6E8D0E2B6E0F0E2E6E800E2D6ECB
:100860000F0E306E810E2F6E0F0E326E820E316EB5
:100870000F0E346E830E336E0F0E366E840E356E91
:100880000F0E386EC20E376E0F0E3A6EC10E396EF5
:100890000F0E3C6EC00E3B6E0F0E3E6EC30E3D6ED5
:1008A0000F0E406EC40E3F6E0F0E426EC30E416EB1
:1008B0000F0E446EF20E436E0F0E466EF00E456E36
:1008C0000F0E486EF10E476E0F0E4A6E9D0E496E6A
:1008D0000F0E4C6ECD0E4B6E0F0E4E6ECA0E4D6E41
:1008E0000F0E506EBD0E4F6E0F0E526EBA0E516E41
:1008F0000F0E546EBE0E536E0F0E566EBE0E556E1C
:100900000F0E586ECB0E576E0F0E5A6EB60E596EF6
:100910000F0E5C6EBB0E5B6E5D6A010E5E6EC150AB
:10092000C00B0F09C16E070EB46E950E686EBF0E38
:10093000676E560E666E680E656E9CD41DC0E9FF2C
:100940001EC0EAFF040EEF6E4FC0E9FF50C0EAFF81
:10095000F00EEF140409EF6E4BC0E9FF4CC0EAFF44
:10096000EF804BC0E9FF4CC0EAFFEF924BC0E9FFBC
:100970004CC0EAFFCF0EEF14EF6E49C0E9FF4AC04A
:10098000EAFFEF8049C0E9FF4AC0EAFFEF8443C0B5
:10099000E9FF44C0EAFFEF8C43C0E9FF44C0EAFF2F
:1009A000EF8E51C0E9FF52C0EAFFF00EEF140C09C0
:1009B000EF6E57C0E9FF58C0EAFF640EEF6E5BC0F0
:1009C000E9FF5CC0EAFF0A0EEF6E4DC0E9FF4EC0C2
:1009D000EAFFEF8443C0E9FF44C0EAFFEF8864C048
:1009E0006AF063C069F063D468C07DF067C07CF0D2
:1009F00066C07BF065C07AF003C081F002C080F071
:100A000001C07FF000C07EF06EDC7D6A7C6A210E42
:100A10007B6E860E7A6E03C081F002C080F001C04A
:100A20007FF000C07EF05FDC6C6A6B6A700E6A6EED
:100A3000840E696E03C070F002C06FF001C06EF0EA
:100A400000C06DF0C9D403C06CF002C06BF001C0EF
:100A50006AF000C069F0B40EF66E010EF76E060E75
:100A60006D6E9BD5890EE96E6CC070F06BC06FF037
:100A70006AC06EF069C06DF0020E716E05D6640E2C
:100A80007B6EDFEC00F05E2C07D05BC0E9FF5CC042
:100A9000EAFF190EEF6E1DD05E50020807E15BC041
:100AA000E9FF5CC0EAFF320EEF6E13D05E50030820
:100AB00007E15BC0E9FF5CC0EAFF4B0EEF6E09D0B7
:100AC0005E50040806E15BC0E9FF5CC0EAFF640E0B
:060AD000EF6E85D7030064
:020000040030CA
:0E00000000C21E1E008781000FC00FE00F40DF
:00000001FF
;PIC18F4520
;CRC=2044  CREATED="08-Nov-23 14:02"
