:1000000035EF00F027500008D8B01FEF00F0275060
:100010000308D8A01FEF00F024C0E9FF25C0EAFFC5
:10002000F00EEF140F09EF6E24C0E9FF25C0EAFFC0
:100030002738F00B006E0F0EEF140010EF6E8EEFEE
:1000400000F0EA6A270EE96EEF500DE0060E016E31
:10005000006A002EFED7012EFBD77B0E006E002E0D
:10006000FED7EF2EF3D791EF00F0F86AD09E0F0E77
:10007000056E920E046E0F0E076E930E066E0F0E37
:10008000096E940E086E0F0E0B6E950E0A6E0F0E13
:100090000D6E960E0C6E0F0E0F6E890E0E6E0F0EFD
:1000A000116E8A0E106E0F0E136E8B0E126E0F0EE7
:1000B000156E8C0E146E0F0E176E8D0E166E0F0EC3
:1000C000196E800E186E0F0E1B6E810E1A6E0F0EBB
:1000D0001D6E820E1C6E0F0E1F6E830E1E6E0F0E97
:1000E000216E840E206E0F0E236EC10E226E0F0E37
:1000F000256E820E246EC150C00B0F09C16E070E13
:10010000B46E010E266E08C0E9FF09C0EAFFEF6A6F
:100110002650040808E326C027F074D7C80E276EBF
:0E01200090D7262A02D0010E266EF2D70300D9
:020000040030CA
:0E00000000C21E1E008781000FC00FE00F40DF
:00000001FF
;PIC18F4520
;CRC=F978  CREATED="06-Sep-23 14:32"
