:1000000017EF00F0EA6A0A0EE96EEF50D8B416EF67
:1000100000F0060E016E006A002EFED7012EFBD7FF
:100020007B0E006E002EFED7EF2EF3D71200F86A7B
:10003000D09E0F0E056E8B0E046E0F0E076E940E83
:10004000066EC150C00B0F09C16E070EB46E06C01C
:10005000E9FF07C0EAFFEF6A04C0E9FF05C0EAFF55
:10006000EF6A010E086E010E086E085008081DE3C5
:1000700004C0E9FF05C0EAFFF00EEF140F09EF6EB0
:1000800004C0E9FF05C0EAFF0838F00B006E0F0E50
:10009000EF140010EF6E020E096EFA0E0A6EB2DF58
:1000A000092EFBD7D8900836E0D7010E086E08500D
:1000B00008081DE304C0E9FF05C0EAFF08500F0B64
:1000C000006EF00EEF140010EF6E04C0E9FF05C0E3
:1000D000EAFF0F0EEF14F009EF6E020E096EFA0E32
:1000E0000A6E90DF092EFBD7D8900836E0D7010EB4
:1000F000086E085008081DE304C0E9FF05C0EAFFC8
:10010000F00EEF140109EF6E04C0E9FF05C0EAFF2D
:100110000838F00B006E0F0EEF140010EF6E020E99
:10012000096EFA0E0A6E6EDF092EFBD7D8900836DC
:10013000E0D7080E086E085000081DE204C0E9FF71
:1001400005C0EAFFF00EEF140209EF6E04C0E9FFEC
:1001500005C0EAFF0838F00B006E0F0EEF14001018
:10016000EF6E020E096EFA0E0A6E4CDF092EFBD7F7
:10017000D8900832E0D7010E086E085008081DE339
:1001800004C0E9FF05C0EAFFF00EEF140409EF6EAA
:1001900004C0E9FF05C0EAFF0838F00B006E0F0E3F
:1001A000EF140010EF6E020E096EFA0E0A6E2ADFCF
:1001B000092EFBD7D8900836E0D7080E086E0850F5
:1001C00000081DE204C0E9FF05C0EAFFF00EEF14CD
:1001D0000809EF6E04C0E9FF05C0EAFF0838F00B1C
:1001E000006E0F0EEF140010EF6E020E096EFA0E85
:1001F0000A6E08DF092EFBD7D8900832E0D733D734
:020200000300F9
:020000040030CA
:0E00000000C21E1E008781000FC00FE00F40DF
:00000001FF
;PIC18F4520
;CRC=6441  CREATED="10-Oct-23 14:11"
