:040000001CEF04F0FD
:08000800046ED8CF05F0E0CF33
:1000100006F00001E9CF0CF0EACF07F0E1CF08F0DD
:10002000E2CF09F0D9CF0AF0DACF0BF0F3CF12F01C
:10003000F4CF13F0FACF14F0F5CF15F0F6CF16F099
:10004000F7CF17F000C00EF001C00FF002C010F0A3
:1000500003C011F09DAA30EF00F09EBA63EF03F0E9
:100060000EC000F00FC001F010C002F011C003F08C
:100070000CC0E9FF07C0EAFF078E08C0E1FF09C016
:10008000E2FF0AC0D9FF0BC0DAFF12C0F3FF13C0B2
:10009000F4FF14C0FAFF15C0F5FF16C0F6FF17C035
:1000A000F7FF045006C0E0FF05C0D8FF1000F76A54
:1000B000BE0FF66E000EF7220900F55012002C0F4D
:1000C00001068E0E006E77C001F076C002F0036A62
:1000D000015209E102C001F0026A080E005E0152FD
:1000E00002E1006A08D0D89001BE04D00236013681
:1000F0000006F9D7019E6DEF03F07650D8B4A5D075
:10010000826F7A50D8B4A1D0825F05E37F0E822738
:10011000D8B09BD006D0810E825FD8A096D0D8B43C
:1001200094D082C000F0016A026A036A816B77C0D2
:1001300080F0808F78C07FF079C07EF0190E826FDA
:100140007D507E5E0DE2010E7F5E0AE2805F08E276
:10015000815F06E2812B802B7F2A7D507E2628D06E
:100160007C507F5E12E2010E805F0FE2815F0DE244
:10017000812B802B7C507F267D507E2619E37F2AA1
:1001800017E1802B15E1812B13D07B508009805F14
:100190000EE2010E815F0BE2812B7B5080098027EC
:1001A0007C507F26E9E3802BE7E1812BE5D70380B4
:1001B000822F01D00BD0D8907E367F3680378137A2
:1001C000D8900336023601368337BAD783A106D0DA
:1001D000D890013202320332833302D0000635E078
:1001E00083BF1ED0D8907E367F36803781377D50D2
:1001F0007E5E07E2010E7F5E04E2805F02E2815FC5
:100200001AE37C507F5E05E2010E805F02E2815FAF
:1002100012E37B508009805F03E2010E815F0BE3F4
:10022000032A09E1022A07E1012A05E1002A0DE07B
:1002300001320232033277C082F07B50821B82AFE0
:1002400002D0018E06D0019E04D0006A016A026AC3
:10025000036A12008651D8B471D0006E8A51D8B4A6
:100260006DD0002604E3810E002668E204D07F0EE4
:10027000005E64E363E087C08EF08B518E1B878F36
:100280008B8F89518D03F4CF90F088518C03F4CF7C
:1002900003F0F3CF8FF08D03F3509027F4508F23AA
:1002A000000E032289518C03F3509027F4508F23C2
:1002B000000E026A0322022287518D03F3508F271A
:1002C000F4500322000E022287518C03F3500326C0
:1002D000F4500222000E016A012289518B03F3506F
:1002E0008F27F4500322000E0222012288518B0333
:1002F000F3500326F4500222000E012287518B0393
:10030000F3500226F4500122002A01BE05D08F3797
:100310000336023601360006000E8FAF0AD0032ADC
:1003200002220122015005E1025003E1035001E1E4
:10033000002A8EBF018E8EAF019E04D0006A016A32
:10034000026A036A1200F00E956E838400008380B7
:10035000000083380F0B8E6F83900000838000D0E5
:1003600000D0000083380F0B8D6F8390000E956EC8
:100370008E39006EF00E001600508D11016E1200C5
:100380008E39F00B006E0F0E83140010836E000088
:100390008380030E006E002EFED78390120083929E
:1003A000D2DF01C08DF001BEFBD78BA183928BB150
:1003B000838200008394000083908C398D6F0F0E30
:1003C0008D178DC08EF0DCDF8C510F0B8D6F8E6F13
:1003D000D7DF1200EA6A870EE96EEF500DE0060ED5
:1003E000016E006A002EFED7012EFBD77B0E006E39
:1003F000002EFED7EF2EF3D71200882D01D003D0A8
:10040000400E896F01D0896B010E875D8927895164
:1004100080098A6F8B6B8C6FC2DF2FEF02F08651E1
:100420000C0A05E0060A0BE0020A0FE013D08B6B02
:10043000010E8C6FB4DF020E876FCCDF10D0010E7F
:10044000876F020E886FD9D70AD08B6B100E8C6F16
:10045000A6DF05D0010E8B6F86C08CF0A0DF1200E6
:100460008651B608866F036A87C08AF0878FD89056
:100470008733883389330332023201320032862FC8
:10048000F6D78AAF0BD0001E011E021E031E002AE3
:10049000D8B4012AD8B4022AD8B4032ABEEF02F095
:1004A000D8B203D0EA6A8E0EE96E006A016A026A67
:1004B000036A8E6B8F6B906B916B8D518C118B11CE
:1004C0008A112CE0200E926FD890863787378837B4
:1004D00089378E378F37903791378D51915D08E18D
:1004E0008C51905D05E18B518F5D02E18A518E5DEB
:1004F0000FE38A518E5F8B51D8A08B3D8F5F8C515B
:10050000D8A08C3D905F8D51D8A08D3D915FD88053
:100510000036013602360336922FD6D78EC0EFFF53
:100520008FC0ECFF90C0ECFF91C0ECFF1200E950CF
:100530007E6E7D50806F19E07CC089F07BC088F0B2
:100540007AC087F079C086F08D6B8C6B200E8B6F34
:10055000820E8A6F7FDE03C07CF002C07BF001C098
:100560007AF000C079F0802FE7D77CC089F07BC09B
:1005700088F07AC087F079C086F072D703C07CF02B
:1005800002C07BF001C07AF000C079F07CAE0DD0E3
:100590007E067E8A791E7A1E7B1E7C1E792AD8B43E
:1005A0007A2AD8B47B2AD8B47C2A3B0E856F9A0E5F
:1005B000846FCA0E836F826B0A0E806F7D50D8B431
:1005C0007E2AD882EA6A790EE96E7CC089F07BC007
:1005D00088F07AC087F079C086F085C08DF084C03D
:1005E0008CF083C08BF082C08AF05ADF0150005239
:1005F0000FE17D28805D0CE07E500CE00F0B805DEC
:1006000001E037E27EBE35D07EBC04D0200E2DD076
:10061000200E7E167EAA0CD07E9A7D50D8A47E062F
:1006200000507E6E2D0E866FFADE7E50006E7E6A62
:100630007D50805D0AE100507E6E2E0E866FEFDEEB
:100640007E50006E200E7E16000E300E7EAA0DD05B
:100650007E9A7D50D8A47E0600507E6E2D0E866F49
:10066000DEDE7E50006E7E6A300E002600C086F010
:10067000D6DED89285C089F084C088F083C087F028
:1006800082C086F08D6B8C6B8B6B0A0E8A6F08DFD5
:1006900003C085F002C084F001C083F000C082F086
:1006A000802F8FD712000900F6CF76F0F7CF77F0C2
:1006B000F5CF86F0B4DE76C0F6FF77C0F7FF752E73
:1006C000F2D7D2EF03F069C003F068C0E9FF69C058
:1006D000EAFF776AEFCF76F0F4D403C079F002C076
:1006E00078F001C077F000C076F07D6A7C6A200E59
:1006F0007B6E820E7A6E01DD03C06DF002C06CF07D
:1007000001C06BF000C06AF06DC079F06CC078F089
:100710006BC077F06AC076F07D6A7C6A200E7B6ED3
:10072000810E7A6EEADC03C078F002C077F001C077
:1007300076F000C075F003C089F002C088F001C0F7
:1007400087F000C086F08D6B8C6B480E8B6F850E2A
:100750008A6F80DD03C078F002C077F001C076F0C8
:1007600000C075F00C0E866F5ADE200E866F57DEC5
:10077000890EE96E78C07CF077C07BF076C07AF0A5
:1007800075C079F0020E7D6ED2DE200E866F47DED8
:10079000250E866F44DEC40EF66E070EF76E070E4A
:1007A000756E81D7890EE96E6DC07CF06CC07BF0F0
:1007B0006BC07AF06AC079F0020E7D6EB8DE9E9A48
:1007C00030EF00F00A2056696E3D20256600000ECD
:1007D000956E196AF2BE198EF29E2D0E876FFADDA4
:1007E00019BEF28E839283948390196AF2BE198E99
:1007F000F29E020E8E6FC4DD19BEF28E6E6A6E50CE
:10080000030818E3036A6E5052DC6F6E196AF2BE79
:10081000198EF29E8B6B8C6FC2DD19BEF28E196A37
:10082000F2BE198EF29E050E876FD4DD19BEF28ED0
:100830006E2AE5D703EF05F0F86AD09E078E0F0EFB
:100840001B6E920E1A6E0F0E1D6E930E1C6E0F0E07
:100850001F6E940E1E6E0F0E216E950E206E0F0EE3
:10086000236E960E226E0F0E256E890E246E0F0ECD
:10087000276E8A0E266E0F0E296E8B0E286E0F0EB7
:100880002B6E8C0E2A6E0F0E2D6E8D0E2C6E0F0E93
:100890002F6E800E2E6E0F0E316E810E306E0F0E8B
:1008A000336E820E326E0F0E356E830E346E0F0E67
:1008B000376E840E366E0F0E396EC20E386E0F0E06
:1008C0003B6EC10E3A6E0F0E3D6EC00E3C6E0F0EAB
:1008D0003F6EC30E3E6E0F0E416EC40E406E0F0E85
:1008E000436EC30E426E0F0E456EF20E446E0F0E37
:1008F000476EF00E466E0F0E496EF10E486E0F0EEB
:100900004B6E9D0E4A6E0F0E4D6ECD0E4C6E0F0E41
:100910004F6ECA0E4E6E0F0E516EBD0E506E0F0E04
:10092000536EBA0E526E0F0E556EBE0E546E0F0EF3
:10093000576EBE0E566E0F0E596ECB0E586E0F0EC2
:100940005B6EB60E5A6E0F0E5D6EBB0E5C6E0F0EBA
:100950005F6EAC0E5E6E0F0E616EAB0E606E0F0EB4
:10096000636EB80E626E0F0E656EAF0E646E0F0E84
:10097000676EAD0E666E0F0E696EAE0E686E6D6AB6
:100980006C6A6B6A6A6AC150C00B0F09C16E070EB0
:10099000B46E1EC0E9FF1FC0EAFF800EEF6E5EC09E
:1009A000E9FF5FC0EAFFEF8A5EC0E9FF5FC0EAFFD0
:1009B000EF9860C0E9FF61C0EAFFEF8E60C0E9FF19
:1009C00061C0EAFFEF885EC0E9FF5FC0EAFFEF9415
:1009D00062C0E9FF63C0EAFFEF9664C0E9FF65C04B
:1009E000EAFF1F0EEF6E4AC0E9FF4BC0EAFFEF8A35
:1009F00044C0E9FF45C0EAFFEF8C44C0E9FF45C0B1
:0A0A0000EAFFEF8EE4D6FFD70300F3
:020000040030CA
:0E00000000C21E1E008781000FC00FE00F40DF
:00000001FF
;PIC18F4520
;CRC=B4C8  CREATED="21-Nov-23 16:57"
