:0400000072EF03F0A8
:08000800046ED8CF05F0E0CF33
:1000100006F00001E9CF0CF0EACF07F0E1CF08F0DD
:10002000E2CF09F0D9CF0AF0DACF0BF0F3CF12F01C
:10003000F4CF13F0FACF14F0F5CF15F0F6CF16F099
:10004000F7CF17F000C00EF001C00FF002C010F0A3
:1000500003C011F09DAC30EF00F09EBCF1EF02F058
:100060009DAA36EF00F09EBA9DEF02F00EC000F0A0
:100070000FC001F010C002F011C003F00CC0E9FF86
:1000800007C0EAFF078E08C0E1FF09C0E2FF0AC00F
:10009000D9FF0BC0DAFF12C0F3FF13C0F4FF14C086
:1000A000FAFF15C0F5FF16C0F6FF17C0F7FF0450A2
:1000B00006C0E0FF05C0D8FF1000F76ACA0FF66E51
:1000C000000EF7220900F55012002C0F0106F00E69
:1000D000956E838400008380000083380F0BA36F2C
:1000E00083900000838000D000D0000083380F0B85
:1000F000A26F8390000E956EA339006EF00E00166D
:100100000050A211016E1200A339F00B006E0F0E09
:1001100083140010836E00008380030E006E002E97
:10012000FED7839012008392D2DF01C0A2F001BEFD
:10013000FBD7A0A18392A0B183820000839400002A
:100140008390A139A26F0F0EA217A2C0A3F0DCDF2B
:10015000A1510F0BA26FA36FD7DF1200EA6A9C0EAA
:10016000E96EEF500DE0060E016E006A002EFED71C
:10017000012EFBD77B0E006E002EFED7EF2EF3D79D
:1001800012009D2D01D003D0400E9E6F01D09E6BBA
:10019000010E9C5D9E279E5180099F6FA06BA16FF1
:1001A000C2DF12009B510C0A05E0060A0BE0020AAE
:1001B0000FE013D0A06B010EA16FB5DF020E9C6F94
:1001C000CDDF10D0010E9C6F020E9D6FDADF0AD0DA
:1001D000A06B100EA16FA7DF05D0010EA06F9BC012
:1001E000A1F0A1DF12000900F6CF8FF0F7CF90F059
:1001F000F5CF9BF0D7DF8FC0F6FF90C0F7FF8E2FB3
:10020000F2D712009B51D8B471D0006E9F51D8B470
:100210006DD0002604E3810E002668E204D07F0E34
:10022000005E64E363E09CC0A3F0A051A31B9C8F1D
:10023000A08F9E51A203F4CFA5F09D51A103F4CF4E
:1002400003F0F3CFA4F0A203F350A527F450A423A6
:10025000000E03229E51A103F350A527F450A423BE
:10026000000E026A032202229C51A203F350A4272B
:10027000F4500322000E02229C51A103F3500326E6
:10028000F4500222000E016A01229E51A003F35095
:10029000A427F4500322000E022201229D51A00344
:1002A000F3500326F4500222000E01229C51A003B9
:1002B000F3500226F4500122002A01BE05D0A437D3
:1002C0000336023601360006000EA4AF0AD0032A18
:1002D00002220122015005E1025003E1035001E135
:1002E000002AA3BF018EA3AF019E04D0006A016A59
:1002F000026A036A12009B51B6089B6F036A9CC096
:100300009FF09C8FD8909C339D339E3303320232F2
:10031000013200329B2FF6D79FAF0BD0001E011E7B
:10032000021E031E002AD8B4012AD8B4022AD8B467
:10033000032A1200D8B203D0EA6AA30EE96E006A5B
:10034000016A026A036AA36BA46BA56BA66BA25138
:10035000A111A0119F112CE0200EA76FD8909B3700
:100360009C379D379E37A337A437A537A637A251B0
:10037000A65D08E1A151A55D05E1A051A45D02E1E2
:100380009F51A35D0FE39F51A35FA051D8A0A03D53
:10039000A45FA151D8A0A13DA55FA251D8A0A23DC4
:1003A000A65FD8800036013602360336A72FD6D78F
:1003B000A3C0EFFFA4C0ECFFA5C0ECFFA6C0ECFFFC
:1003C0001200E950936F9251956F19E091C09EF021
:1003D00090C09DF08FC09CF08EC09BF0A26BA16B73
:1003E000200EA06F820E9F6F0DDF03C091F002C040
:1003F00090F001C08FF000C08EF0952FE7D791C02C
:100400009EF090C09DF08FC09CF08EC09BF073DF7B
:1004100003C091F002C090F001C08FF000C08EF0D8
:1004200091AF0DD09307938B8E1F8F1F901F911F3D
:100430008E2BD8B48F2BD8B4902BD8B4912B3B0EE5
:100440009A6F9A0E996FCA0E986F976B0A0E956FF6
:100450009251D8B4932BD882EA6A8E0EE96E91C07D
:100460009EF090C09DF08FC09CF08EC09BF09AC013
:10047000A2F099C0A1F098C0A0F097C09FF05ADFF9
:10048000015000520FE19229955D0CE093510CE070
:100490000F0B955D01E037E293BF35D093BD04D0DB
:1004A000200E2DD0200E931793AB0CD0939B92511E
:1004B000D8A493070050936F2D0E9B6F73DE93515A
:1004C000006E936B9251955D0AE10050936F2E0E72
:1004D0009B6F68DE9351006E200E9317000E300E56
:1004E00093AB0DD0939B9251D8A493070050936F78
:1004F0002D0E9B6F57DE9351006E936B300E0026CE
:1005000000C09BF04FDED8929AC09EF099C09DF03B
:1005100098C09CF097C09BF0A26BA16BA06B0A0ED9
:100520009F6F08DF03C09AF002C099F001C098F0F5
:1005300000C097F0952F8FD71200680EF66E050E4B
:10054000F76E070E8E6F4FDE890EE96E6DC091F06B
:100550006CC090F06BC08FF06AC08EF0020E926F8C
:1005600030DF9E9A36EF00F00C2056696E3A202557
:1005700066008E0E006E91C001F090C002F0036A1A
:10058000015209E102C001F0026A080E005E015248
:1005900002E1006A08D0D89001BE04D002360136CC
:1005A0000006F9D7019E12008E0E006E8E51005E7D
:1005B0008FC002F090C001F0028E005209E0D89086
:1005C000025202E1015204E002320132002EF7D75A
:1005D0008FAF05D0011E021E012AD8B4022A2EEFC9
:1005E00003F03FC003F03EC0E9FF3FC0EAFFECCF9D
:1005F00091F0ED52EFCF90F0BCDF03C09EF002C04F
:100600009DF001C09CF000C09BF00A0EA26F280E66
:10061000A16F200EA06F770E9F6FF4DD03C06DF009
:1006200002C06CF001C06BF000C06AF06DC09EF0BB
:100630006CC09DF06BC09CF06AC09BF0A26BA16B7C
:10064000200EA06F820E9F6FDDDD03C091F002C00F
:1006500090F001C08FF000C08EF0A6D702C06FF0FE
:1006600001C06EF094908B709E9C36EF00F00C20D1
:1006700056696E3D256620560000000E956E196A7B
:10068000F2BE198EF29E2D0E9C6F68DD19BEF28EA1
:10069000839283948390196AF2BE198EF29E020EA1
:1006A000A36F32DD19BEF28E706A7050030818E332
:1006B000036A705002DD716E196AF2BE198EF29EE5
:1006C000A06BA16F30DD19BEF28E196AF2BE198ED1
:1006D000F29E050E9C6F42DD19BEF28E702AE5D7A0
:1006E00099EF04F0F86AD09E078E0F0E1B6E920EE3
:1006F0001A6E0F0E1D6E930E1C6E0F0E1F6E940E53
:100700001E6E0F0E216E950E206E0F0E236E960E2E
:10071000226E0F0E256E890E246E0F0E276E8A0E26
:10072000266E0F0E296E8B0E286E0F0E2B6E8C0E02
:100730002A6E0F0E2D6E8D0E2C6E0F0E2F6E800EEC
:100740002E6E0F0E316E810E306E0F0E336E820ED6
:10075000326E0F0E356E830E346E0F0E376E840EB2
:10076000366E0F0E396EC20E386E0F0E3B6EC10E16
:100770003A6E0F0E3D6EC00E3C6E0F0E3F6EC30EF6
:100780003E6E0F0E416EC40E406E0F0E436EC30ED2
:10079000426E0F0E456EF20E446E0F0E476EF00E57
:1007A000466E0F0E496EF10E486E0F0E4B6E9D0E8B
:1007B0004A6E0F0E4D6ECD0E4C6E0F0E4F6ECA0E62
:1007C0004E6E0F0E516EBD0E506E0F0E536EBA0E62
:1007D000526E0F0E556EBE0E546E0F0E576EBE0E3D
:1007E000566E0F0E596ECB0E586E0F0E5B6EB60E18
:1007F0005A6E0F0E5D6EBB0E5C6E0F0E5F6EAC0E12
:100800005E6E0F0E616EAB0E606E0F0E636EB80EF5
:10081000626E0F0E656EAF0E646E0F0E676EAD0EDC
:10082000666E0F0E696EAE0E686E6D6A6C6A6B6AEC
:100830006A6A6F6A6E6AC150C00B0F09C16E070EFB
:10084000B46E1AC0E9FF1BC0EAFF010EEF6E3AC09A
:10085000E9FF3BC0EAFFF00EEF140E09EF6E38C05F
:10086000E9FF39C0EAFFEF8038C0E9FF39C0EAFF8D
:10087000C30EEF14EF6E3AC0E9FF3BC0EAFFEF98FA
:100880003AC0E9FF3BC0EAFFEF9A3CC0E9FF3DC038
:10089000EAFFEF8E3CC0E9FF3DC0EAFFC70EEF1450
:1008A0002809EF6E3CC0E9FF3DC0EAFFF80EEF14E7
:1008B0000509EF6E4AC0E9FF4BC0EAFFEF8C1EC08E
:1008C000E9FF1FC0EAFF800EEF6E5EC0E9FF5FC068
:1008D000EAFFEF8A5EC0E9FF5FC0EAFFEF9860C001
:1008E000E9FF61C0EAFFEF8E60C0E9FF61C0EAFF87
:1008F000EF885EC0E9FF5FC0EAFFEF9462C0E9FFE6
:1009000063C0EAFFEF9664C0E9FF65C0EAFF1F0E0F
:10091000EF6E4AC0E9FF4BC0EAFFEF8A44C0E9FF2F
:1009200045C0EAFFEF8C44C0E9FF45C0EAFFEF8E07
:10093000A4D638C0E9FF39C0EAFFEF82020E706E1C
:10094000196AF2BE198EF29EFA0E9C6F07DC19BE70
:10095000F28E702EF5D73FC003F03EC0E9FF3FC0D6
:10096000EAFF196AF2BE198EF29EECCF91F0ED52B9
:10097000EFCF90F0FEDD19BEF28E196AF2BE198E2D
:10098000F29E03C09EF002C09DF001C09CF000C02A
:100990009BF00A0EA26F280EA16F200EA06F770E9B
:1009A0009F6F30DC19BEF28E03C073F002C072F08C
:1009B00001C071F000C070F06E0EF66E060EF76E9C
:1009C000196AF2BE198EF29E060E8E6F0CDC19BEED
:1009D000F28E890EE96E196AF2BE198EF29E73C00C
:1009E00091F072C090F071C08FF070C08EF0020E66
:1009F000926FE7DC19BEF28E196AF2BE198EF29E72
:100A0000200E9B6FD2EC00F019BEF28E196AF2BE76
:100A1000198EF29E560E9B6FD2EC00F019BEF28E2C
:100A200067C003F066C0E9FF67C0EAFF6EC0EFFF72
:040A300080D7030068
:020000040030CA
:0E00000000C21E1E008781000FC00FE00F40DF
:00000001FF
;PIC18F4520
;CRC=DD1A  CREATED="28-Nov-23 15:14"
