:04000000F9EF01F023
:08000800046ED8CF05F0E0CF33
:1000100006F00001E9CF0CF0EACF07F0E1CF08F0DD
:10002000E2CF09F0D9CF0AF0DACF0BF0F3CF12F01C
:10003000F4CF13F0FACF14F000C00EF001C00FF0AF
:1000400002C010F003C011F0F2A82AEF00F0F2B2E3
:100050005AEF00F00EC000F00FC001F010C002F027
:1000600011C003F00CC0E9FF07C0EAFF078E08C00B
:10007000E1FF09C0E2FF0AC0D9FF0BC0DAFF12C0DE
:10008000F3FF13C0F4FF14C0FAFF045006C0E0FFF2
:1000900005C0D8FF1000F2CF0DF0F29EF76AB00F46
:1000A000F66E000EF7220900F5500DBEF28E12001A
:1000B0002C0F0106938881A810D0938A81BA0DD0A5
:1000C000938C81BC0AD0938E81BE07D066C0E9FFB5
:1000D00067C0EAFF010EEF6E09D1938881B810D096
:1000E000938A81AA0DD0938C81BC0AD0938E81BE55
:1000F00007D066C0E9FF67C0EAFF020EEF6EF6D0D8
:10010000938881A810D0938A81AA0DD0938C81BC4A
:100110000AD0938E81BE07D066C0E9FF67C0EAFFB0
:10012000030EEF6EE3D0938881B810D0938A81BA22
:100130000DD0938C81AC0AD0938E81BE07D066C05F
:10014000E9FF67C0EAFF040EEF6ED0D0938881A864
:1001500010D0938A81BA0DD0938C81AC0AD0938E43
:1001600081BE07D066C0E9FF67C0EAFF050EEF6EEB
:10017000BDD0938881B810D0938A81AA0DD0938C7A
:1001800081AC0AD0938E81BE07D066C0E9FF67C0FC
:10019000EAFF060EEF6EAAD0938881A810D0938A4A
:1001A00081AA0DD0938C81AC0AD0938E81BE07D0EA
:1001B00066C0E9FF67C0EAFF070EEF6E97D093882D
:1001C00081B810D0938A81BA0DD0938C81BC0AD0AB
:1001D000938E81AE07D066C0E9FF67C0EAFF080EC4
:1001E000EF6E84D0938881A810D0938A81BA0DD005
:1001F000938C81BC0AD0938E81AE07D066C0E9FF94
:1002000067C0EAFF090EEF6E71D0938881B810D0F5
:10021000938A81AA0DD0938C81BC0AD0938E81AE33
:1002200007D066C0E9FF67C0EAFF0A0EEF6E5ED036
:10023000938881A810D0938A81AA0DD0938C81BC19
:100240000AD0938E81AE07D066C0E9FF67C0EAFF8F
:100250000B0EEF6E4BD0938881B810D0938A81BA81
:100260000DD0938C81AC0AD0938E81AE07D066C03E
:10027000E9FF67C0EAFF0C0EEF6E38D0938881A8C3
:1002800010D0938A81BA0DD0938C81AC0AD0938E12
:1002900081AE07D066C0E9FF67C0EAFF0D0EEF6EC2
:1002A00025D0938881B810D0938A81AA0DD0938CE1
:1002B00081AC0AD0938E81AE07D066C0E9FF67C0DB
:1002C000EAFF0E0EEF6E12D0938881A80FD0938AAA
:1002D00081AA0CD0938C81AC09D0938E81AE06D0CC
:1002E00066C0E9FF67C0EAFF0F0EEF6EF2922AEFD9
:1002F00000F0EA6A6B0EE96EEF500DE0060E016E3B
:10030000006A002EFED7012EFBD77B0E006E002E5A
:10031000FED7EF2EF3D712006F38F00B006E0F0EE2
:1003200083140010836E00008380020E006E002E86
:10033000FED700D0000083901200F00E956E8384EB
:1003400000008380000083380F0B6F6E83900000E5
:10035000838000D000D0000083380F0B6E6E839036
:10036000000E956E6F38006EF00E001600506E1085
:10037000016EBDEF01F08392E0D701C06EF001BEC7
:10038000FBD76CA083926CB0838200008394000042
:1003900083906D386E6E0F0E6E166EC06FF0BCDF00
:1003A0006D500F0B6E6E6F6EB7DFF2EF01F0000E47
:1003B000956E2D0E6B6E9DDF839283948390020E5B
:1003C0006F6EAADF6A6A6A50030811E3036A6A5013
:1003D000F2CF6BF0F29E5FDE6BBEF28E6B6E6C6ADC
:1003E0006D6EC9D7050E6B6E84DF6A2AECD7ABEF52
:1003F00002F0F86AD09E078E0F0E176E920E166EE0
:100400000F0E196E930E186E0F0E1B6E940E1A6E51
:100410000F0E1D6E950E1C6E0F0E1F6E960E1E6E2D
:100420000F0E216E890E206E0F0E236E8A0E226E25
:100430000F0E256E8B0E246E0F0E276E8C0E266E01
:100440000F0E296E8D0E286E0F0E2B6E800E2A6EEB
:100450000F0E2D6E810E2C6E0F0E2F6E820E2E6ED5
:100460000F0E316E830E306E0F0E336E840E326EB1
:100470000F0E356EC20E346E0F0E376EC10E366E15
:100480000F0E396EC00E386E0F0E3B6EC30E3A6EF5
:100490000F0E3D6EC40E3C6E0F0E3F6EC30E3E6ED1
:1004A0000F0E416EF20E406E0F0E436EF00E426E56
:1004B0000F0E456EF10E446E0F0E476E9D0E466E8A
:1004C0000F0E496EA00E486E0F0E4B6ECD0E4A6E8B
:1004D0000F0E4D6ECA0E4C6E0F0E4F6EBD0E4E6E51
:1004E0000F0E516EBA0E506E0F0E536EBE0E526E40
:1004F0000F0E556EBE0E546E0F0E576EBB0E566E1F
:100500000F0E596EBB0E586E0F0E5B6ECB0E5A6EF1
:100510000F0E5D6EB60E5C6E0F0E5F6EAC0E5E6EF5
:100520000F0E616EAB0E606E0F0E636EB80E626ED4
:100530000F0E656EAF0E646E0F0E676EAD0E666EBB
:100540000F0E696EAE0E686EC150C00B0F09C16E02
:10055000070EB46E2CD71AC0E9FF1BC0EAFFEF509C
:100560008009EF6E5EC0E9FF5FC0EAFFEF8A5EC000
:10057000E9FF5FC0EAFFEF9860C0E9FF61C0EAFFF2
:10058000EF8E60C0E9FF61C0EAFFEF885EC0E9FF5F
:100590005FC0EAFFEF9462C0E9FF63C0EAFFEF9635
:1005A00064C0E9FF65C0EAFF1F0EEF6E46C0E9FFB9
:1005B00047C0EAFFEF8A40C0E9FF41C0EAFFEF8E83
:1005C00040C0E9FF41C0EAFFEF8C36C0E9FF37C009
:1005D000EAFFF00EEF140F09EF6E18C0E9FF19C023
:1005E000EAFF010EEF6E44C0E9FF45C0EAFFEF8C61
:1005F00040C0E9FF41C0EAFFEF8840C0E9FF41C0C9
:10060000EAFFEF8C40C0E9FF41C0EAFFEF8EFFD761
:020610000300E5
:020000040030CA
:0E00000000C21E1E008781000FC00FE00F40DF
:00000001FF
;PIC18F4520
;CRC=144D  CREATED="13-Dec-23 18:45"
