:04000000BBEF01F061
:08000800046ED8CF05F0E0CF33
:1000100006F00001E9CF0CF0EACF07F0E1CF08F0DD
:10002000E2CF09F0D9CF0AF0DACF0BF0F3CF12F01C
:10003000F4CF13F0FACF14F000C00EF001C00FF0AF
:1000400002C010F003C011F09DAA2AEF00F09EBA82
:1000500063EF01F00EC000F00FC001F010C002F01D
:1000600011C003F00CC0E9FF07C0EAFF078E08C00B
:10007000E1FF09C0E2FF0AC0D9FF0BC0DAFF12C0DE
:10008000F3FF13C0F4FF14C0FAFF045006C0E0FFF2
:1000900005C0D8FF1000F2CF0DF0F29EF76AB00F46
:1000A000F66E000EF7220900F5500DBEF28E12001A
:1000B0002C0F0106F00E956E8384000083800000F3
:1000C00083380F0B816F83900000838000D000D0B5
:1000D000000083380F0B806F8390000E956E81397E
:1000E000006EF00E001600508011016E1200813972
:1000F000F00B006E0F0E83140010836E00008380DF
:10010000020E006E002EFED700D000008390120079
:100110008392D0DF01C080F001BEFBD77EA0839226
:100120007EB0838200008394000083907F38806FCC
:100130000F0E801780C081F0DADF7F500F0B806FC9
:10014000816FD5DF1200EA6A7A0EE96EEF500DE09A
:10015000060E016E006A002EFED7012EFBD77B0E25
:10016000006E002EFED7EF2EF3D712007B2C01D0AD
:1001700003D0400E7C6E01D07C6A010E7A5C7C2636
:100180007C5080097D6E7E6A7F6EC2DFE8EF00F0F2
:1001900079500C0A05E0060A0BE0020A0FE013D0C2
:1001A0007E6A010E7F6EB4DF020E7A6ECCDF10D055
:1001B000010E7A6E020E7B6ED9D70AD07E6A100EBF
:1001C0007F6EA6DF05D0010E7E6E79C07FF0A0DFC6
:1001D00012000900F6CF74F0F7CF75F0F5CF79F083
:1001E000D7DF74C0F6FF75C0F7FF732EF2D772EF3A
:1001F00001F07A50016A795C03E279C000F00CD01A
:10020000006A080E7B6E793600367A50005CD8B0F2
:10021000006E01367B2EF7D71200200E74A8300E28
:10022000756E73C000F073AE08D0001E002A00C0C7
:1002300073F02D0E756E748E7480015073C079F05A
:10024000640E7A6ED6DF00C073F0300E0124766E35
:1002500073C079F00A0E7A6ECCDF300E0024786E0F
:10026000300E0124776E75C000F0300E765C04E02D
:10027000748274BE748412D075C076F0200E756ED0
:10028000300E775C04E0748074BE748207D0D8A40A
:10029000748004E176C077F0200E766E74B405D0D9
:1002A00074B206D074B007D009D075C079F070DF91
:1002B00076C079F06DDF77C079F06ADF78C079F0C9
:1002C00067DF77EF01F06AC003F069C0E9FF6AC039
:1002D000EAFFEFCF72F0F40EF66E020EF76E0A0E22
:1002E000736E77D772C073F0180E746E96D79E9A9D
:1002F0002AEF00F00C42696E617279203D2025647E
:100300000000000E956E166AF2BE168EF29E2D0E3D
:100310007A6E19DF16BEF28E839283948390166AEA
:10032000F2BE168EF29E020E816FE1DE16BEF28ED6
:100330006B6A6B5003081DE3036A6B50F2CF6CF0DD
:10034000F29EA9DE6CBEF28E6C6E166AF2BE168E3E
:10035000F29E7E6A7F6EDCDE16BEF28E166AF2BEFA
:10036000168EF29E050E7A6EEEDE16BEF28E6B2AA9
:10037000E0D76DEF02F0F86AD09E078E0F0E186E70
:10038000920E176E0F0E1A6E930E196E0F0E1C6ED4
:10039000940E1B6E0F0E1E6E950E1D6E0F0E206EB0
:1003A000960E1F6E0F0E226E890E216E0F0E246E9A
:1003B0008A0E236E0F0E266E8B0E256E0F0E286E84
:1003C0008C0E276E0F0E2A6E8D0E296E0F0E2C6E60
:1003D000800E2B6E0F0E2E6E810E2D6E0F0E306E58
:1003E000820E2F6E0F0E326E830E316E0F0E346E34
:1003F000840E336E0F0E366EC20E356E0F0E386ED3
:10040000C10E376E0F0E3A6EC00E396E0F0E3C6E77
:10041000C30E3B6E0F0E3E6EC40E3D6E0F0E406E51
:10042000C30E3F6E0F0E426EF20E416E0F0E446E03
:10043000F00E436E0F0E466EF10E456E0F0E486EB7
:100440009D0E476E0F0E4A6EA00E496E0F0E4C6E3B
:10045000CD0E4B6E0F0E4E6ECA0E4D6E0F0E506EC1
:10046000BD0E4F6E0F0E526EBA0E516E0F0E546EC1
:10047000BE0E536E0F0E566EBE0E556E0F0E586E9C
:10048000BB0E576E0F0E5A6EBB0E596E0F0E5C6E82
:10049000CB0E5B6E0F0E5E6EB60E5D6E0F0E606E57
:1004A000AC0E5F6E0F0E626EAB0E616E0F0E646E61
:1004B000B80E636E0F0E666EAF0E656E0F0E686E31
:1004C000AD0E676E0F0E6A6EAE0E696EC150C00B38
:1004D0000F09C16E070EB46E14D71BC0E9FF1CC014
:1004E000EAFFEF508009EF6E5FC0E9FF60C0EAFFEE
:1004F000EF8A5FC0E9FF60C0EAFFEF9861C0E9FFE3
:1005000062C0EAFFEF8E61C0E9FF62C0EAFFEF88D8
:100510005FC0E9FF60C0EAFFEF9463C0E9FF64C019
:10052000EAFFEF9665C0E9FF66C0EAFF1F0EEF6EB7
:1005300047C0E9FF48C0EAFFEF8A41C0E9FF42C077
:10054000EAFFEF8E41C0E9FF42C0EAFFEF8CFFD720
:020550000300A6
:020000040030CA
:0E00000000C21E1E008781000FC00FE00F40DF
:00000001FF
;PIC18F4520
;CRC=DBFD  CREATED="13-Dec-23 18:38"
