:1000000015EF00F0EA6A0A0EE96EEF500DE0060EF9
:10001000016E006A002EFED7012EFBD77B0E006E0C
:10002000002EFED7EF2EF3D71200F86AD09E0F0EE7
:10003000056E940E046E0F0E076E820E066EC15092
:10004000C00B0F09C16E070EB46E04C0E9FF05C0F6
:10005000EAFFEF6A06C0E9FF07C0EAFFEF6A010E98
:10006000086E010E086E0850100819E306C0E9FF7B
:1000700007C0EAFFEF500810EF6E040E096EFA0E8B
:100080000A6EC0DF092EFBD706C0E9FF07C0EAFFF2
:100090000850FF0AEF14EF6ED8900836E4D7080E28
:1000A000086E0850010819E206C0E9FF07C0EAFF20
:1000B000EF500810EF6E040E096EFA0E0A6EA2DF02
:1000C000092EFBD706C0E9FF07C0EAFF0850FF0A68
:0E00D000EF14EF6ED8900832E4D7C3D70300C8
:020000040030CA
:0E00000000C21E1E008781000FC00FE00F40DF
:00000001FF
;PIC18F4520
;CRC=E88C  CREATED="02-Sep-23 23:20"
