:0400000012EF03F008
:08000800046ED8CF05F0E0CF33
:1000100006F00001E9CF0CF0EACF07F0E1CF08F0DD
:10002000E2CF09F0D9CF0AF0DACF0BF0F3CF12F01C
:10003000F4CF13F0FACF14F0F5CF15F0F6CF16F099
:10004000F7CF17F000C00EF001C00FF002C010F0A3
:1000500003C011F0F2A830EF00F0F2B267EF00F049
:100060009DAC36EF00F09EBC00EF01F00EC000F03A
:100070000FC001F010C002F011C003F00CC0E9FF86
:1000800007C0EAFF078E08C0E1FF09C0E2FF0AC00F
:10009000D9FF0BC0DAFF12C0F3FF13C0F4FF14C086
:1000A000FAFF15C0F5FF16C0F6FF17C0F7FF0450A2
:1000B00006C0E0FF05C0D8FF1000F76ACA0FF66E51
:1000C000000EF7220900F55012002C0F0106522AEB
:1000D000F29236EF00F08E0E006E74C001F073C025
:1000E00002F0036A015209E102C001F0026A080E3F
:1000F000005E015202E1006A08D0D89001BE04D02F
:10010000023601360006F9D7019E0CEF01F073505C
:10011000D8B471D0006E7750D8B46DD0002604E307
:10012000810E002668E204D07F0E005E64E363E087
:1001300074C07BF078507B1A748E788E76507A0279
:10014000F4CF7DF075507902F4CF03F0F3CF7CF05B
:100150007A02F3507D26F4507C22000E0322765062
:100160007902F3507D26F4507C22000E026A0322AD
:10017000022274507A02F3507C26F4500322000EBF
:10018000022274507902F3500326F4500222000E2A
:10019000016A012276507802F3507C26F450032243
:1001A000000E0222012275507802F3500326F4500B
:1001B0000222000E012274507802F3500226F450FD
:1001C0000122002A01BE05D07C36033602360136F4
:1001D0000006000E7CAE0AD0032A02220122015042
:1001E00005E1025003E1035001E1002A7BBE018ECC
:1001F0007BAE019E04D0006A016A026A036A1200A3
:100200003FC003F03EC0E9FF3FC0EAFFECCF74F00F
:10021000ED52EFCF73F05FD703C076F002C075F0F8
:1002200001C074F000C073F00A0E7A6E280E796E69
:10023000200E786E770E776E6ADF03C051F002C031
:1002400050F001C04FF000C04EF09E9C36EF00F021
:100250000C54656D703D20256600EA6A650EE96EF6
:10026000EF500DE0060E016E006A002EFED7012E43
:10027000FBD77B0E006E002EFED7EF2EF3D71200B9
:100280006C38F00B006E0F0E83140010836E0000AC
:100290008380030E006E002EFED783901200F00EB6
:1002A000956E838400008380000083380F0B6C6E92
:1002B00083900000838000D000D0000083380F0BB3
:1002C0006B6E8390000E956E6C38006EF00E00160B
:1002D00000506B10016E6FEF01F08392E0D701C008
:1002E0006BF001BEFBD769A0839269B083820000E6
:1002F0008394000083906A386B6E0F0E6B166BC090
:100300006CF0BEDF6A500F0B6B6E6C6EB9DF1200C3
:10031000000E956E2D0E656EA0DF83928394839000
:10032000020E6C6EADDF536A535003080CE3036A90
:100330005350C3DE546E696A6A6ECFDF050E656E78
:100340008CDF532AF1D78AEF03F0662C01D003D05B
:10035000400E676E01D0676A010E655C67266750C4
:100360008009686E696A6A6EB8DFD7EF01F0645081
:100370000C0A05E0060A0BE0020A0FE013D0696AD6
:10038000010E6A6EAADF020E656E67DF10D0010EE5
:10039000656E020E666ED9D70AD0696A100E6A6E53
:1003A0009CDF05D0010E696E64C06AF096DF120012
:1003B0000900F6CF58F0F7CF59F0F5CF64F0D7DF4A
:1003C00058C0F6FF59C0F7FF572EF2D746EF04F09A
:1003D0006450B608646E036A65C068F0658ED89094
:1003E0006532663267320332023201320032642EE5
:1003F000F6D768AE0BD0001E011E021E031E002A97
:10040000D8B4012AD8B4022AD8B4032A7CEF02F067
:10041000D8B203D0EA6A6C0EE96E006A016A026A19
:10042000036A6C6A6D6A6E6A6F6A6B506A10691053
:1004300068102CE0200E706ED890643665366636F3
:1004400067366C366D366E366F366B506F5C08E112
:100450006A506E5C05E169506D5C02E168506C5C4D
:100460000FE368506C5E6950D8A0693C6D5E6A50BD
:10047000D8A06A3C6E5E6B50D8A06B3C6F5ED88093
:100480000036013602360336702ED6D76CC0EFFF29
:100490006DC0ECFF6EC0ECFF6FC0ECFF1200E950C6
:1004A0005C6E5B505E6E1FE0196AF2BE198EF29EA2
:1004B0005AC076F059C075F058C074F057C073F048
:1004C0007A6A796A200E786E820E776E20DE19BE07
:1004D000F28E03C05AF002C059F001C058F000C0BB
:1004E00057F05E2EE1D75AC067F059C066F058C089
:1004F00065F057C064F06CD703C05AF002C059F0E1
:1005000001C058F000C057F05AAE0DD05C065C8AAE
:10051000571E581E591E5A1E572AD8B4582AD8B4E6
:10052000592AD8B45A2A3B0E636E9A0E626ECA0ECE
:10053000616E606A0A0E5E6E5B50D8B45C2AD88227
:10054000EA6A570EE96E5AC067F059C066F058C0A3
:1005500065F057C064F063C06BF062C06AF061C0C0
:1005600069F060C068F054DF015000520FE15B2871
:100570005E5C0CE05C500CE00F0B5E5C01E037E26F
:100580005CBE35D05CBC04D0200E2DD0200E5C1695
:100590005CAA0CD05C9A5B50D8A45C0600505C6EE0
:1005A0002D0E646EE4DE5C50006E5C6A5B505E5C37
:1005B0000AE100505C6E2E0E646ED9DE5C50006E57
:1005C000200E5C16000E300E5CAA0DD05C9A5B50BB
:1005D000D8A45C0600505C6E2D0E646EC8DE5C50C4
:1005E000006E5C6A300E002600C064F0C0DED89257
:1005F00063C067F062C066F061C065F060C064F01F
:100600006B6A6A6A696A0A0E686E02DF03C063F089
:1006100002C062F001C061F000C060F05E2E8FD7B2
:1006200053EF04F0F86AD09E078E0F0E1B6E920EE9
:100630001A6E0F0E1D6E930E1C6E0F0E1F6E940E13
:100640001E6E0F0E216E950E206E0F0E236E960EEF
:10065000226E0F0E256E890E246E0F0E276E8A0EE7
:10066000266E0F0E296E8B0E286E0F0E2B6E8C0EC3
:100670002A6E0F0E2D6E8D0E2C6E0F0E2F6E800EAD
:100680002E6E0F0E316E810E306E0F0E336E820E97
:10069000326E0F0E356E830E346E0F0E376E840E73
:1006A000366E0F0E396EC20E386E0F0E3B6EC10ED7
:1006B0003A6E0F0E3D6EC00E3C6E0F0E3F6EC30EB7
:1006C0003E6E0F0E416EC40E406E0F0E436EC30E93
:1006D000426E0F0E456EF20E446E0F0E476EF00E18
:1006E000466E0F0E496EF10E486E0F0E4B6E9D0E4C
:1006F0004A6E0F0E4D6ECD0E4C6E516A506A4F6AA7
:100700004E6A010E526EC150C00B0F09C16E070E2A
:10071000B46EFED51AC0E9FF1BC0EAFF010EEF6EF2
:100720003AC0E9FF3BC0EAFFF00EEF140E09EF6E8E
:1007300038C0E9FF39C0EAFFEF8038C0E9FF39C0AF
:10074000EAFFC30EEF14EF6E3AC0E9FF3BC0EAFFC9
:10075000EF983AC0E9FF3BC0EAFFEF9A3CC0E9FFDF
:100760003DC0EAFFEF8E3CC0E9FF3DC0EAFFC70E87
:10077000EF142809EF6E3CC0E9FF3DC0EAFFF80E18
:10078000EF140509EF6E1CC0E9FF1DC0EAFFEF5032
:100790000109EF6E48C0E9FF49C0EAFFEF8C44C091
:1007A000E9FF45C0EAFFEF884AC0E9FF4BC0EAFF16
:1007B000EF8C44C0E9FF45C0EAFFEF8C44C0E9FF7D
:1007C00045C0EAFFEF8E38C0E9FF39C0EAFFEF828B
:1007D000FA0E656E42DD5250010A03E0030A17E08B
:1007E0002CD01AC0E9FF1BC0EAFF010EEF6E3AC021
:1007F000E9FF3BC0EAFFF00EEF140E09EF6E38C0C0
:10080000E9FF39C0EAFFC30EEF14EF6E16D01AC02D
:10081000E9FF1BC0EAFF020EEF6E3AC0E9FF3BC0E2
:10082000EAFFF00EEF140D09EF6E38C0E9FF39C092
:10083000EAFFC30EEF140409EF6E5250020802E201
:10084000010E526E196AF2BE198EF29E51C076F0F8
:1008500050C075F04FC074F04EC073F07A6A796A78
:10086000480E786E850E776E52DC19BEF28E03C08C
:1008700056F002C055F001C054F000C053F0500EC5
:10088000F66E020EF76E070E576E92D5890EE96E60
:1008900056C05AF055C059F054C058F053C057F0E4
:0A08A000020E5B6EFCD58FD703003B
:020000040030CA
:0E00000000C21E1E008781000FC00FE00F40DF
:00000001FF
;PIC18F4520
;CRC=06B8  CREATED="25-Oct-23 13:42"
