:04000000F2EF03F028
:08000800046ED8CF05F0E0CF33
:1000100006F00001E9CF0CF0EACF07F0E1CF08F0DD
:10002000E2CF09F0D9CF0AF0DACF0BF0F3CF12F01C
:10003000F4CF13F0FACF14F0F5CF15F0F6CF16F099
:10004000F7CF17F000C00EF001C00FF002C010F0A3
:1000500003C011F09DA030EF00F09EB067EF00F0FC
:100060009DA436EF00F09EB498EF00F00EC000F0B3
:100070000FC001F010C002F011C003F00CC0E9FF86
:1000800007C0EAFF078E08C0E1FF09C0E2FF0AC00F
:10009000D9FF0BC0DAFF12C0F3FF13C0F4FF14C086
:1000A000FAFF15C0F5FF16C0F6FF17C0F7FF0450A2
:1000B00006C0E0FF05C0D8FF1000F76ACA0FF66E51
:1000C000000EF7220900F55012002C0F0106552AE8
:1000D00094908B709E9036EF00F0866B876B010ECC
:1000E000886FDA6AD96A8B6B7E0E8A6FEA6A820E33
:1000F000E96E8BC0E2FF8AC0E1FF88C089F0D8902A
:10010000E550EE02F3508623F4508723892FF7D76A
:1001100086C0DEFF87C086F0876BD8B0872B8A2B1E
:10012000D8B48B2B882B88510508E0E1ACEF00F0A8
:1001300051C0E9FF52C0EAFFECCF57F0ED52EFCFCC
:1001400056F0816B806B7F6A55C07EF0856B010E27
:10015000846F836B826BC1D703C081F002C080F0D3
:1001600001C07FF000C07EF058507E5E59507F5A2B
:10017000000E805B815B56507E245A6E57507F2064
:100180005B6E556A57C059F056C058F094928B7206
:100190009E9436EF00F00C2046203D20256600009E
:1001A000EA6A720EE96EEF500DE0060E016E006A0B
:1001B000002EFED7012EFBD77B0E006E002EFED741
:1001C000EF2EF3D712007938F00B006E0F0E831468
:1001D0000010836E00008380030E006E002EFED799
:1001E00083901200F00E956E8384000083800000DF
:1001F00083380F0B796E83900000838000D000D08D
:10020000000083380F0B786E8390000E956E79385E
:10021000006EF00E001600507810016E12EF01F023
:100220008392E0D701C078F001BEFBD776A083921D
:1002300076B0838200008394000083907738786ED4
:100240000F0E781678C079F0BEDF77500F0B786EFE
:10025000796EB9DF1200000E956E2D0E726EA0DF62
:10026000839283948390020E796EADDF606A605052
:1002700003080CE3036A605020DF616E766A776ED4
:10028000CFDF050E726E8CDF602AF1D77DEF04F0B0
:100290008E0E006E61C001F060C002F0036A015270
:1002A00009E102C001F0026A080E005E015202E19B
:1002B000006A08D0D89001BE04D00236013600068C
:1002C000F9D7019EB5EF04F07150D8B471D0006E2B
:1002D0007550D8B46DD0002604E3810E002668E284
:1002E00004D07F0E005E64E363E072C079F0765064
:1002F000791A728E768E74507802F4CF7BF0735038
:100300007702F4CF03F0F3CF7AF07802F3507B2634
:10031000F4507A22000E032274507702F3507B26A9
:10032000F4507A22000E026A0322022272507802EE
:10033000F3507A26F4500322000E02227250770204
:10034000F3500326F4500222000E016A0122745079
:100350007602F3507A26F4500322000E0222012284
:1003600073507602F3500326F4500222000E01224D
:1003700072507602F3500226F4500122002A01BE88
:1003800005D07A360336023601360006000E7AAE04
:100390000AD0032A02220122015005E1025003E1A2
:1003A000035001E1002A79BE018E79AE019E04D08E
:1003B000006A016A026A036A12006050D8B4A5D0CC
:1003C0006C6E6450D8B4A1D06C5E05E37F0E6C26D1
:1003D000D8B09BD006D0810E6C5ED8A096D0D8B491
:1003E00094D06CC000F0016A026A036A6B6A61C053
:1003F0006AF06A8E62C069F063C068F0190E6C6EB4
:100400006750685E0DE2010E695E0AE26A5E08E20C
:100410006B5E06E26B2A6A2A692A6750682628D032
:100420006650695E12E2010E6A5E0FE26B5E0DE2DB
:100430006B2A6A2A665069266750682619E3692A7A
:1004400017E16A2A15E16B2A13D0655080096A5EAC
:100450000EE2010E6B5E0BE26B2A655080096A2684
:1004600066506926E9E36A2AE7E16B2AE5D703804B
:100470006C2E01D00BD0D890683669366A366B3650
:10048000D8900336023601366D36BAD76DA006D045
:10049000D8900132023203326D3202D0000635E0CC
:1004A0006DBE1ED0D890683669366A366B36675096
:1004B000685E07E2010E695E04E26A5E02E26B5E5C
:1004C0001AE36650695E05E2010E6A5E02E26B5E47
:1004D00012E3655080096A5E03E2010E6B5E0BE376
:1004E000032A09E1022A07E1012A05E1002A0DE0B9
:1004F00001320232033261C06CF065506C1A6CAE8E
:1005000002D0018E06D0019E04D0006A016A026A00
:10051000036AE4EF04F0732C01D003D0400E746E34
:1005200001D0746A010E725C742674508009756E75
:10053000766A776E75DEBDEF02F071500C0A05E049
:10054000060A0BE0020A0FE013D0766A010E776EFE
:1005500067DE020E726E24DE10D0010E726E020E85
:10056000736ED9D70AD0766A100E776E59DE05D031
:10057000010E766E71C077F053DE12000900F6CFDF
:1005800065F0F7CF66F0F5CF71F0D7DF65C0F6FF05
:1005900066C0F7FF642EF2D7F3EF04F07150B6088F
:1005A000716E036A72C075F0728ED89072327332B7
:1005B00074320332023201320032712EF6D775AE38
:1005C0000BD0001E011E021E031E002AD8B4012AF1
:1005D000D8B4022AD8B4032A5CEF03F0D8B203D00F
:1005E000EA6A790EE96E006A016A026A036A796A48
:1005F0007A6A7B6A7C6A78507710761075102CE0E6
:10060000200E7D6ED8907136723673367436793618
:100610007A367B367C3678507C5C08E177507B5CA0
:1006200005E176507A5C02E17550795C0FE3755014
:10063000795E7650D8A0763C7A5E7750D8A0773C29
:100640007B5E7850D8A0783C7C5ED880003601363E
:10065000023603367D2ED6D779C0EFFF7AC0ECFF85
:100660007BC0ECFF7CC0ECFF1200E950696E685063
:100670006B6E19E067C074F066C073F065C072F00D
:1006800064C071F0786A776A200E766E820E756E9D
:100690001BDE03C067F002C066F001C065F000C059
:1006A00064F06B2EE7D767C074F066C073F065C066
:1006B00072F064C071F072D703C067F002C066F0D8
:1006C00001C065F000C064F067AE0DD06906698AAC
:1006D000641E651E661E671E642AD8B4652AD8B4D7
:1006E000662AD8B4672A3B0E706E9A0E6F6ECA0ED9
:1006F0006E6E6D6A0A0E6B6E6850D8B4692AD88225
:10070000EA6A640EE96E67C074F066C073F065C093
:1007100072F064C071F070C078F06FC077F06EC096
:1007200076F06DC075F05ADF015000520FE1682875
:100730006B5C0CE069500CE00F0B6B5C01E037E286
:1007400069BE35D069BC04D0200E2DD0200E6916AC
:1007500069AA0CD0699A6850D8A469060050696EDD
:100760002D0E716EEADE6950006E696A68506B5C2E
:100770000AE10050696E2E0E716EDFDE6950006E68
:10078000200E6916000E300E69AA0DD0699A6850C5
:10079000D8A469060050696E2D0E716ECEDE6950C8
:1007A000006E696A300E002600C071F0C6DED89275
:1007B00070C074F06FC073F06EC072F06DC071F0F5
:1007C000786A776A766A0A0E756E08DF03C070F081
:1007D00002C06FF001C06EF000C06DF06B2E8FD7BD
:1007E00000EF05F0F86AD09E078E0F0E1A6E920E7B
:1007F000196E0F0E1C6E930E1B6E0F0E1E6E940E56
:100800001D6E0F0E206E950E1F6E0F0E226E960E31
:10081000216E0F0E246E890E236E0F0E266E8A0E29
:10082000256E0F0E286E8B0E276E0F0E2A6E8C0E05
:10083000296E0F0E2C6E8D0E2B6E0F0E2E6E800EEF
:100840002D6E0F0E306E810E2F6E0F0E326E820ED9
:10085000316E0F0E346E830E336E0F0E366E840EB5
:10086000356E0F0E386EC20E376E0F0E3A6EC10E19
:10087000396E0F0E3C6EC00E3B6E0F0E3E6EC30EF9
:100880003D6E0F0E406EC40E3F6E0F0E426EC30ED5
:10089000416E0F0E446EF20E436E0F0E466EF00E5A
:1008A000456E0F0E486EF10E476E0F0E4A6E9D0E8E
:1008B000496E0F0E4C6ECD0E4B6E0F0E4E6EBD0E72
:1008C0004D6E0F0E506EBA0E4F6E0F0E526EBE0E64
:1008D000516E0F0E546EB60E536E556AC150C00B5A
:1008E0000F09C16E070EB46E950E5F6EBF0E5E6E81
:1008F000560E5D6E680E5C6EAED41DC0E9FF1EC064
:10090000EAFF040EEF6E4DC0E9FF4EC0EAFFF00EA5
:10091000EF140409EF6E4BC0E9FF4CC0EAFFEF8013
:100920004BC0E9FF4CC0EAFFEF924BC0E9FF4CC05F
:10093000EAFFCF0EEF14EF6E49C0E9FF4AC0EAFFAD
:10094000EF8049C0E9FF4AC0EAFFEF8443C0E9FFF6
:1009500044C0EAFFEF8C43C0E9FF44C0EAFFEF8EDA
:100960005BC061F05AC060F093D45FC074F05EC0A9
:1009700073F05DC072F05CC071F003C078F002C02B
:1009800077F001C076F000C075F09EDC746A736A7F
:10099000210E726E860E716E03C078F002C077F081
:1009A00001C076F000C075F08FDC636A626A700E79
:1009B000616E840E606E03C067F002C066F001C015
:1009C00065F000C064F0F9D403C063F002C062F0C7
:1009D00001C061F000C060F0960EF66E010EF76E79
:1009E000060E646ECBD5890EE96E63C067F062C0F7
:1009F00066F061C065F060C064F0020E686E35D6C6
:0C0A0000640E726ED0EC00F0ABD7030067
:020000040030CA
:0E00000000C21E1E008781000FC00FE00F40DF
:00000001FF
;PIC18F4520
;CRC=57AA  CREATED="31-Oct-23 15:20"
