:04000000EEEF03F02C
:08000800046ED8CF05F0E0CF33
:1000100006F00001E9CF0CF0EACF07F0E1CF08F0DD
:10002000E2CF09F0D9CF0AF0DACF0BF0F3CF12F01C
:10003000F4CF13F0FACF14F0F5CF15F0F6CF16F099
:10004000F7CF17F000C00EF001C00FF002C010F0A3
:1000500003C011F09DA030EF00F09EB067EF00F0FC
:100060009DA436EF00F09EB496EF00F00EC000F0B5
:100070000FC001F010C002F011C003F00CC0E9FF86
:1000800007C0EAFF078E08C0E1FF09C0E2FF0AC00F
:10009000D9FF0BC0DAFF12C0F3FF13C0F4FF14C086
:1000A000FAFF15C0F5FF16C0F6FF17C0F7FF0450A2
:1000B00006C0E0FF05C0D8FF1000F76ACA0FF66E51
:1000C000000EF7220900F55012002C0F0106552AE8
:1000D0009E9036EF00F08A6B8B6B010E8C6FDA6AA4
:1000E000D96A8F6B820E8E6FEA6A860EE96E8FC0B8
:1000F000E2FF8EC0E1FF8CC08DF0D890E550EE029B
:10010000F3508A23F4508B238D2FF7D78AC0DEFF5C
:100110008BC08AF08B6BD8B08B2B8E2BD8B48F2BE7
:100120008C2B8C510508E0E1AAEF00F051C0E9FFEB
:1001300052C0EAFFECCF57F0ED52EFCF56F0856B8F
:10014000846B836B55C082F0896B010E886F876B5F
:10015000866BC1D703C085F002C084F001C083F074
:1001600000C082F05850825F5950835B000E845B60
:10017000855B565082255A6E575083215B6E556AB7
:1001800057C059F056C058F09E9436EF00F00C203E
:1001900046203D2025660000EA6A760EE96EEF50A3
:1001A0000DE0060E016E006A002EFED7012EFBD771
:1001B0007B0E006E002EFED7EF2EF3D712007D3897
:1001C000F00B006E0F0E83140010836E000083800E
:1001D000030E006E002EFED783901200F00E956E77
:1001E000838400008380000083380F0B7D6E839032
:1001F0000000838000D000D0000083380F0B7C6E9D
:100200008390000E956E7D38006EF00E0016005043
:100210007C10016E0EEF01F08392E0D701C07CF0FC
:1002200001BEFBD77AA083927AB0838200008394C8
:10023000000083907B387C6E0F0E7C167CC07DF0B6
:10024000BEDF7B500F0B7C6E7D6EB9DF1200000E9F
:10025000956E2D0E766EA0DF839283948390020EAE
:100260007D6EADDF686A685003080CE3036A68506E
:1002700024DF696E7A6A7B6ECFDF050E766E8CDFC7
:10028000682AF1D771EF04F08E0E006E69C001F09C
:1002900068C002F0036A015209E102C001F0026A7B
:1002A000080E005E015202E1006A08D0D89001BE3B
:1002B00004D0023601360006F9D7019EACEF04F0F7
:1002C0007550D8B471D0006E7950D8B46DD0002676
:1002D00004E3810E002668E204D07F0E005E64E332
:1002E00063E076C07DF07A507D1A768E7A8E7850F3
:1002F0007C02F4CF7FF077507B02F4CF03F0F3CF92
:100300007EF07C02F3507F26F4507E22000E032202
:1003100078507B02F3507F26F4507E22000E026A52
:100320000322022276507C02F3507E26F4500322F0
:10033000000E022276507B02F3500326F450022274
:10034000000E016A012278507A02F3507E26F450A2
:100350000322000E0222012277507A02F350032674
:10036000F4500222000E012276507A02F350022647
:10037000F4500122002A01BE05D07E360336023633
:1003800001360006000E7EAE0AD0032A02220122A8
:10039000015005E1025003E1035001E1002A7DBE56
:1003A000018E7DAE019E04D0006A016A026A036A72
:1003B00012006850D8B4A5D0746E6C50D8B4A1D0D7
:1003C000745E05E37F0E7426D8B09BD006D0810EF4
:1003D000745ED8A096D0D8B494D074C000F0016AEE
:1003E000026A036A736A69C072F0728E6AC071F041
:1003F0006BC070F0190E746E6F50705E0DE2010EDE
:10040000715E0AE2725E08E2735E06E2732A722A85
:10041000712A6F50702628D06E50715E12E2010E64
:10042000725E0FE2735E0DE2732A722A6E507126BD
:100430006F50702619E3712A17E1722A15E1732AA9
:1004400013D06D508009725E0EE2010E735E0BE2F6
:10045000732A6D50800972266E507126E9E3722A64
:10046000E7E1732AE5D70380742E01D00BD0D89032
:100470007036713672367336D890033602360136CE
:100480007536BAD775A006D0D89001320232033241
:10049000753202D0000635E075BE1ED0D890703699
:1004A0007136723673366F50705E07E2010E715E00
:1004B00004E2725E02E2735E1AE36E50715E05E260
:1004C000010E725E02E2735E12E36D508009725E8D
:1004D00003E2010E735E0BE3032A09E1022A07E13E
:1004E000012A05E1002A0DE001320232033269C01F
:1004F00074F06D50741A74AE02D0018E06D0019E55
:1005000004D0006A016A026A036AE3EF04F0772C00
:1005100001D003D0400E786E01D0786A010E765C6F
:10052000782678508009796E7A6A7B6E75DEB9EF2D
:1005300002F075500C0A05E0060A0BE0020A0FE013
:1005400013D07A6A010E7B6E67DE020E766E24DEB1
:1005500010D0010E766E020E776ED9D70AD07A6A65
:10056000100E7B6E59DE05D0010E7A6E75C07BF0E1
:1005700053DE12000900F6CF69F0F7CF6AF0F5CF2D
:1005800075F0D7DF69C0F6FF6AC0F7FF682EF2D7B3
:10059000F2EF04F07550B608756E036A76C079F014
:1005A000768ED89076327732783203320232013248
:1005B0000032752EF6D779AE0BD0001E011E021E3A
:1005C000031E002AD8B4012AD8B4022AD8B4032AB8
:1005D00058EF03F0D8B203D0EA6A7D0EE96E006AE4
:1005E000016A026A036A7D6A7E6A7F6A806B7C5058
:1005F0007B107A1079102CE0200E816FD890753620
:100600007636773678367D367E367F3680377C5044
:10061000805D08E17B507F5C05E17A507E5C02E101
:1006200079507D5C0FE379507D5E7A50D8A07A3C9A
:100630007E5E7B50D8A07B3C7F5E7C50D8A07C3C0B
:10064000805FD8800036013602360336812FD6D738
:100650007DC0EFFF7EC0ECFF7FC0ECFF80C0ECFFF1
:100660001200E9506D6E6C506F6E19E06BC078F03F
:100670006AC077F069C076F068C075F07C6A7B6A02
:10068000200E7A6E820E796E1BDE03C06BF002C004
:100690006AF001C069F000C068F06F2EE7D76BC048
:1006A00078F06AC077F069C076F068C075F072D7EC
:1006B00003C06BF002C06AF001C069F000C068F0CE
:1006C0006BAE0DD06D066D8A681E691E6A1E6B1EAC
:1006D000682AD8B4692AD8B46A2AD8B46B2A3B0EDF
:1006E000746E9A0E736ECA0E726E716A0A0E6F6E17
:1006F0006C50D8B46D2AD882EA6A680EE96E6BC075
:1007000078F06AC077F069C076F068C075F074C0A0
:100710007CF073C07BF072C07AF071C079F05ADF60
:10072000015000520FE16C286F5C0CE06D500CE042
:100730000F0B6F5C01E037E26DBE35D06DBC04D0AD
:10074000200E2DD0200E6D166DAA0CD06D9A6C5017
:10075000D8A46D0600506D6E2D0E756EEADE6D50DC
:10076000006E6D6A6C506F5C0AE100506D6E2E0E6B
:10077000756EDFDE6D50006E200E6D16000E300EB1
:100780006DAA0DD06D9A6C50D8A46D0600506D6E98
:100790002D0E756ECEDE6D50006E6D6A300E002629
:1007A00000C075F0C6DED89274C078F073C077F0E0
:1007B00072C076F071C075F07C6A7B6A7A6A0A0E44
:1007C000796E08DF03C074F002C073F001C072F0EC
:1007D00000C071F06F2E8FD7FFEF04F0F86AD09E43
:1007E000078E0F0E1A6E920E196E0F0E1C6E930E60
:1007F0001B6E0F0E1E6E940E1D6E0F0E206E950E4C
:100800001F6E0F0E226E960E216E0F0E246E890E35
:10081000236E0F0E266E8A0E256E0F0E286E8B0E1F
:10082000276E0F0E2A6E8C0E296E0F0E2C6E8D0EFB
:100830002B6E0F0E2E6E800E2D6E0F0E306E810EF3
:100840002F6E0F0E326E820E316E0F0E346E830ECF
:10085000336E0F0E366E840E356E0F0E386EC20E6E
:10086000376E0F0E3A6EC10E396E0F0E3C6EC00E13
:100870003B6E0F0E3E6EC30E3D6E0F0E406EC40EED
:100880003F6E0F0E426EC30E416E0F0E446EF20E9F
:10089000436E0F0E466EF00E456E0F0E486EF10E53
:1008A000476E0F0E4A6E9D0E496E0F0E4C6ECD0EAA
:1008B0004B6E0F0E4E6EBD0E4D6E0F0E506EBA0E7D
:1008C0004F6E0F0E526EBE0E516E0F0E546EB60E60
:1008D000536E556AC150C00B0F09C16E070EB46E3E
:1008E000B6D4950E676EBF0E666E560E656E680EB8
:1008F000646E1DC0E9FF1EC0EAFF040EEF6E4DC01E
:10090000E9FF4EC0EAFFF00EEF140409EF6E4BC092
:10091000E9FF4CC0EAFFEF924BC0E9FF4CC0EAFF91
:10092000CF0EEF14EF6E49C0E9FF4AC0EAFFEF8037
:1009300049C0E9FF4AC0EAFFEF8443C0E9FF44C071
:10094000EAFFEF8C43C0E9FF44C0EAFFEF8E5BC0D3
:1009500069F05AC068F098D403C078F002C077F00C
:1009600001C076F000C075F067C07CF066C07BF017
:1009700065C07AF064C079F0A3DC03C05FF002C008
:100980005EF001C05DF000C05CF0786A776A210E0D
:10099000766E860E756E5FC07CF05EC07BF05DC0CB
:1009A0007AF05CC079F08CDC6B6A6A6A700E696EF2
:1009B000840E686E03C06FF002C06EF001C06DF06F
:1009C00000C06CF0F6D403C063F002C062F001C056
:1009D00061F000C060F08E0EF66E010EF76E060E2E
:1009E000686EC8D5890EE96E63C06BF062C06AF0AC
:1009F00061C069F060C068F0020E6C6E32D6020E03
:100A0000686EFA0E766ECCEC00F0682EFAD79FD79F
:020A10000300E1
:020000040030CA
:0E00000000C21E1E008781000FC00FE00F40DF
:00000001FF
;PIC18F4520
;CRC=ED96  CREATED="31-Oct-23 14:42"
