:1000000016EF00F0EA6A0D0EE96EEF500DE0060EF5
:10001000016E006A002EFED7012EFBD77B0E006E0C
:10002000002EFED7EF2EF3D760EF00F0F86AD09ED7
:100030000F0E056E930E046E0F0E076E8A0E066E7F
:100040000F0E096E810E086E0F0E0B6EC10E0A6E3A
:10005000C150C00B0F09C16E070EB46E04C0E9FF9A
:1000600005C0EAFF800EEF6E06C0E9FF07C0EAFF99
:10007000EF6A08C0E9FF09C0EAFFEF6A0AC0E9FFBA
:100080000BC0EAFFF00EEF140F09EF6E09C003F08A
:1000900008C0E9FF09C0EAFFEF50800807E106C089
:1000A000E9FF07C0EAFF010EEF6E05D006C0E9FFC9
:1000B00007C0EAFFEF6A020E0C6EFA0E0D6EA2D7B1
:0800C0000C2EFBD7E3D703006F
:020000040030CA
:0E00000000C21E1E008781000FC00FE00F40DF
:00000001FF
;PIC18F4520
;CRC=3067  CREATED="09-Sep-23 12:35"
