:040000004AEF02F0D1
:08000800046ED8CF05F0E0CF33
:1000100006F00001E9CF0CF0EACF07F0E1CF08F0DD
:10002000E2CF09F0D9CF0AF0DACF0BF0F3CF12F01C
:10003000F4CF13F0FACF14F0F5CF15F0F6CF16F099
:10004000F7CF17F000C00EF001C00FF002C010F0A3
:1000500003C011F09DAC30EF00F09EBCFDEF00F04E
:100060009DA436EF00F09EB425EF01F00EC000F025
:100070000FC001F010C002F011C003F00CC0E9FF86
:1000800007C0EAFF078E08C0E1FF09C0E2FF0AC00F
:10009000D9FF0BC0DAFF12C0F3FF13C0F4FF14C086
:1000A000FAFF15C0F5FF16C0F6FF17C0F7FF0450A2
:1000B00006C0E0FF05C0D8FF1000F76ACA0FF66E51
:1000C000000EF7220900F55012002C0F01068E0ECB
:1000D000006E72C001F071C002F0036A015209E1C2
:1000E00002C001F0026A080E005E015202E1006ADD
:1000F00008D0D89001BE04D0023601360006F9D7E8
:10010000019E09EF01F07150D8B471D0006E7550A6
:10011000D8B46DD0002604E3810E002668E204D036
:100120007F0E005E64E363E072C079F07650791A66
:10013000728E768E74507802F4CF7BF07350770213
:10014000F4CF03F0F3CF7AF07802F3507B26F4502B
:100150007A22000E032274507702F3507B26F4506B
:100160007A22000E026A0322022272507802F350B1
:100170007A26F4500322000E022272507702F350C6
:100180000326F4500222000E016A01227450760206
:10019000F3507A26F4500322000E022201227350FB
:1001A0007602F3500326F4500222000E0122725010
:1001B0007602F3500226F4500122002A01BE05D037
:1001C0007A360336023601360006000E7AAE0AD0C1
:1001D000032A02220122015005E1025003E10350EB
:1001E00001E1002A79BE018E79AE019E04D0006A39
:1001F000016A026A036A1AEF01F03EC003F03DC0D3
:10020000E9FF3EC0EAFFECCF72F0ED52EFCF71F0A4
:100210005ED703C074F002C073F001C072F000C07A
:1002200071F00A0E786E280E776E200E766E770EBD
:10023000756E69D703C05EF002C05DF001C05CF06E
:1002400000C05BF09E9C36EF00F053C0E9FF54C045
:10025000EAFFECCF72F0ED52EFCF71F05F507124F6
:10026000016E6050722054C0EAFF53C0E9FFEC6E8B
:10027000ED5201C0EFFF9E9436EF00F00C53573162
:1002800000000C53573200000C53573300000C533E
:10029000573400000C5075736820612062757474C7
:1002A0006F6E2E2E2E00EA6A660EE96EEF500DE09C
:1002B000060E016E006A002EFED7012EFBD77B0EC4
:1002C000006E002EFED7EF2EF3D712006D38F00B24
:1002D000006E0F0E83140010836E00008380030EE7
:1002E000006E002EFED783901200F00E956E838470
:1002F00000008380000083380F0B6D6E8390000038
:10030000838000D000D0000083380F0B6C6E839088
:10031000000E956E6D38006EF00E001600506C10D9
:10032000016E95EF01F08392E0D701C06CF001BE41
:10033000FBD76AA083926AB0838200008394000096
:1003400083906B386C6E0F0E6C166CC06DF0BEDF58
:100350006B500F0B6C6E6D6EB9DF1200000E956E58
:100360002D0E666EA0DF839283948390020E6D6ED5
:10037000ADDF636A635003080CE3036A63509DDEDC
:10038000646E6A6A6B6ECFDF050E666E8CDF632A61
:10039000F1D7E2EF02F064C06BF068506B1A6BAEFD
:1003A00005D0D894D89064BED8802FD064C06BF0AC
:1003B00067C06CF063506C5E06E06BAE26D0D85020
:1003C000010AD86E22D068C06CF064506C5E06E002
:1003D0006BAE1BD0D850010AD86E17D069C06CF034
:1003E00065506C5E06E06BAE10D0D850010AD86E36
:1003F0000CD06AC06CF066506C5E06E06BAE05D047
:10040000D850010AD86E01D0D8901200672C01D0C4
:1004100003D0400E686E01D0686A010E665C6826E3
:1004200068508009696E6A6A6B6E7DDF38EF02F092
:1004300065500C0A05E0060A0BE0020A0FE013D033
:100440006A6A010E6B6E6FDF020E666E2CDF10D0D3
:10045000010E666E020E676ED9D70AD06A6A100E58
:100460006B6E61DF05D0010E6A6E65C06BF05BDFFD
:1004700044EF02F00900F5520CE0F6CF63F0F7CF3D
:1004800064F0F5CF65F0D4D763C0F6FF64C0F7FF22
:10049000F1D71200F86AD09E078E0F0E1A6E920ED8
:1004A000196E0F0E1C6E930E1B6E0F0E1E6E940EA9
:1004B0001D6E0F0E206E950E1F6E0F0E226E960E85
:1004C000216E0F0E246E890E236E0F0E266E8A0E7D
:1004D000256E0F0E286E8B0E276E0F0E2A6E8C0E59
:1004E000296E0F0E2C6E8D0E2B6E0F0E2E6E800E43
:1004F0002D6E0F0E306E810E2F6E0F0E326E820E2D
:10050000316E0F0E346E830E336E0F0E366E840E08
:10051000356E0F0E386EC20E376E0F0E3A6EC10E6C
:10052000396E0F0E3C6EC00E3B6E0F0E3E6EC30E4C
:100530003D6E0F0E406EC40E3F6E0F0E426EC30E28
:10054000416E0F0E446EF20E436E0F0E466EF00EAD
:10055000456E0F0E486EF10E476E0F0E4A6E9D0EE1
:10056000496E0F0E4C6ECD0E4B6E0F0E4E6ECA0EB8
:100570004D6E0F0E506EBD0E4F6E0F0E526EBA0EB8
:10058000516E0F0E546EBE0E536E0F0E566EBE0E93
:10059000556E0F0E586ECB0E576E0F0E5A6EB60E6E
:1005A000596E5E6A5D6A5C6A5B6A030E606EE80E95
:1005B0005F6E626A616AC150C00B0F09C16E070E9F
:1005C000B46ECCD619C0E9FF1AC0EAFF010EEF6E77
:1005D00039C0E9FF3AC0EAFFF00EEF140E09EF6EE2
:1005E00037C0E9FF38C0EAFFEF8037C0E9FF38C005
:1005F000EAFFC30EEF14EF6E39C0E9FF3AC0EAFF1D
:10060000EF9839C0E9FF3AC0EAFFEF9A3BC0E9FF33
:100610003CC0EAFFEF8E3BC0E9FF3CC0EAFFC70EDB
:10062000EF142809EF6E3BC0E9FF3CC0EAFFF80E6B
:10063000EF140509EF6E49C0E9FF4AC0EAFFEF8CED
:100640001DC0E9FF1EC0EAFFEF6A4FC0E9FF50C0BE
:10065000EAFFF00EEF140209EF6E4BC0E9FF4CC049
:10066000EAFFEF8049C0E9FF4AC0EAFFEF8443C0D8
:10067000E9FF44C0EAFFEF8C43C0E9FF44C0EAFF52
:10068000EF8E37C0E9FF38C0EAFFEF82FA0E666EE0
:100690000ADE1F0E666E850E656E4B0E646E800E52
:1006A000636E5EC06AF05DC069F05CC068F05BC0FC
:1006B00067F071DE1CE35EC066F05DC065F05CC093
:1006C00064F05BC063F0CD0E6A6ECC0E696E4C0EAA
:1006D000686E800E676E5FDE0AE3270E606E100E96
:1006E0005F6E7C0EF66E020EF76EC4DE8AD0330E9D
:1006F000666E656E646E800E636E5EC06AF05DC08D
:1007000069F05CC068F05BC067F045DE1CE35EC06A
:1007100066F05DC065F05CC064F05BC063F09A0E8B
:100720006A6E990E696E390E686E800E676E33DEE2
:100730000AE34E0E606E200E5F6E820EF66E020EA3
:10074000F76E98DE5ED0330E666E656E130E646EC5
:10075000800E636E5EC06AF05DC069F05CC068F0D8
:100760005BC067F018DE1CE35EC066F05DC065F03C
:100770005CC064F05BC063F09A0E6A6E990E696E9D
:10078000190E686E800E676E06DE0AE3880EF66E3E
:10079000020EF76E6FDE750E606E300E5F6E31D03A
:1007A000666A656A400E646E7F0E636E5EC06AF0B4
:1007B0005DC069F05CC068F05BC067F0ECDD1CE315
:1007C0005EC066F05DC065F05CC064F05BC063F065
:1007D000CD0E6A6ECC0E696E4C0E686E7F0E676E23
:1007E000DADD0AE38E0EF66E020EF76E43DE9C0E25
:1007F000606E400E5F6E05D0940EF66E020EF76EC0
:0608000039DE3FD70300C2
:020000040030CA
:0E00000000C21E1E008781000FC00FE00F40DF
:00000001FF
;PIC18F4520
;CRC=1305  CREATED="07-Nov-23 14:32"
