:04000000B7EF04F062
:08000800046ED8CF05F0E0CF33
:1000100006F00001E9CF0CF0EACF07F0E1CF08F0DD
:10002000E2CF09F0D9CF0AF0DACF0BF0F3CF12F01C
:10003000F4CF13F0FACF14F0F5CF15F0F6CF16F099
:10004000F7CF17F000C00EF001C00FF002C010F0A3
:1000500003C011F09DA030EF00F09EB073EF00F0F0
:10006000F2A836EF00F0F2B2D8EF00F09DAC3CEF12
:1000700000F09EBC81EF01F0A0A042EF00F0A1B023
:10008000A1EF00F00EC000F00FC001F010C002F0B0
:1000900011C003F00CC0E9FF07C0EAFF078E08C0DB
:1000A000E1FF09C0E2FF0AC0D9FF0BC0DAFF12C0AE
:1000B000F3FF13C0F4FF14C0FAFF15C0F5FF16C01C
:1000C000F6FF17C0F7FF045006C0E0FF05C0D8FFD9
:1000D0001000F76AE20FF66E000EF7220900F550E5
:1000E00012002C0F01067E2A9E9042EF00F0A96BB1
:1000F000AA6B010EAB6FDA6AD96AAE6BA10EAD6F57
:10010000EA6AA50EE96EAEC0E2FFADC0E1FFABC08A
:10011000ACF0D890E550EE02F350A923F450AA2396
:10012000AC2FF7D7A9C0DEFFAAC0A9F0AA6BD8B040
:10013000AA2BAD2BD8B4AE2BAB2BAB510508E0E10D
:1001400012005AC0E9FF5BC0EAFFECCF80F0ED522D
:10015000EFCF7FF0A46BA36BA26B7EC0A1F0A86B66
:10016000010EA76FA66BA56BC2DF03C0A4F002C08F
:10017000A3F001C0A2F000C0A1F08151A15F8251A3
:10018000A25B000EA35BA45B7F50A125836F80510F
:10019000A221846F000EA321856F000EA421866F1B
:1001A0007E6A80C082F07FC081F0A19042EF00F0B3
:1001B0001EC0E9FF1FC0EAFFEF50040AEF6E866B16
:1001C000856B846B836B58C0E9FF59C0EAFF320E20
:1001D000EF6EF29242EF00F08E0E006EA4C001F0BE
:1001E000A3C002F0036A015209E102C001F0026AF1
:1001F000080E005E015202E1006A08D0D89001BEEC
:1002000004D0023601360006F9D7019E8DEF01F0C9
:10021000A351D8B471D0006EA751D8B46DD00026C8
:1002200004E3810E002668E204D07F0E005E64E3E2
:1002300063E0A4C0ABF0A851AB1BA48FA88FA6515C
:10024000AA03F4CFADF0A551A903F4CF03F0F3CF87
:10025000ACF0AA03F350AD27F450AC23000E0322F8
:10026000A651A903F350AD27F450AC23000E026A47
:1002700003220222A451AA03F350AC27F450032214
:10028000000E0222A451A903F3500326F4500222C7
:10029000000E016A0122A651A803F350AC27F450C6
:1002A0000322000E02220122A551A803F3500326C7
:1002B000F4500222000E0122A451A803F35002269A
:1002C000F4500122002A01BE05D0AC3703360236B5
:1002D00001360006000EACAF0AD0032A022201222A
:1002E000015005E1025003E1035001E1002AABBFD8
:1002F000018EABAF019E04D0006A016A026A036AF4
:1003000012003FC003F03EC0E9FF3FC0EAFFECCF60
:10031000A4F0ED52EFCFA3F05FD703C0A6F002C068
:10032000A5F001C0A4F000C0A3F00A0EAA6F280E29
:10033000A96F200EA86F770EA76F6ADF03C071F058
:1003400002C070F001C06FF000C06EF09E9C42EFE2
:1003500000F00C52504D203D202566000A455250B9
:100360004D203D2025660000EA6A950EE96EEF50AB
:100370000DE0060E016E006A002EFED7012EFBD79F
:100380007B0E006E002EFED7EF2EF3D712009C39A5
:10039000F00B006E0F0E83140010836E000083803C
:1003A000030E006E002EFED783901200F00E956EA5
:1003B000838400008380000083380F0B9C6F839040
:1003C0000000838000D000D0000083380F0B9B6FAB
:1003D0008390000E956E9C39006EF00E0016005052
:1003E0009B11016EF6EF01F08392E0D701C09BF004
:1003F00001BEFBD799A1839299B1838200008394B7
:10040000000083909A399B6F0F0E9B179BC09CF046
:10041000BEDF9A510F0B9B6F9C6FB9DF1200000E6D
:10042000956E2D0E956FA0DF839283948390020EBC
:100430009C6FADDF876B875103080CE3036A87511C
:1004400048DE886F996B9A6FCFDF050E956F8CDF52
:10045000872BF1D776EF05F0B60E006E036A026ABD
:10046000016A8B518C118D118E1102E1006A0DD041
:10047000D89001BE09D08B378C378D378E37033635
:1004800002360136002EF4D7019E40EF06F0875168
:10049000D8B4A5D0936F8B51D8B4A1D0935F05E3A6
:1004A0007F0E9327D8B09BD006D0810E935FD8A043
:1004B00096D0D8B494D093C000F0016A026A036A5F
:1004C000926B88C091F0918F89C090F08AC08FF0B4
:1004D000190E936F8E518F5F0DE2010E905F0AE24D
:1004E000915F08E2925F06E2922B912B902B8E5146
:1004F0008F2728D08D51905F12E2010E915F0FE29D
:10050000925F0DE2922B912B8D5190278E518F2768
:1005100019E3902B17E1912B15E1922B13D08C51FD
:100520008009915F0EE2010E925F0BE2922B8C51DB
:10053000800991278D519027E9E3912BE7E1922BD8
:10054000E5D70380932F01D00BD0D8908F37903709
:1005500091379237D8900336023601369437BAD79E
:1005600094A106D0D890013202320332943302D0E3
:10057000000635E094BF1ED0D8908F379037913762
:1005800092378E518F5F07E2010E905F04E2915F18
:1005900002E2925F1AE38D51905F05E2010E915FD6
:1005A00002E2925F12E38C518009915F03E2010E37
:1005B000925F0BE3032A09E1022A07E1012A05E120
:1005C000002A0DE001320232033288C093F08C51D0
:1005D000931B93AF02D0018E06D0019E04D0006A17
:1005E000016A026A036A1200962D01D003D0400E00
:1005F000976F01D0976B010E955D972797518009F2
:10060000986F996B9A6FF0DE26EF03F094510C0A05
:1006100005E0060A0BE0020A0FE013D0996B010E09
:100620009A6FE2DE020E956F9FDE10D0010E956F7D
:10063000020E966FD9D70AD0996B100E9A6FD4DE3E
:1006400005D0010E996F94C09AF0CEDE1200090019
:10065000F6CF88F0F7CF89F0F5CF94F0D7DF88C0D8
:10066000F6FF89C0F7FF872FF2D712009451B60822
:10067000946F036A95C098F0958FD8909533963310
:1006800097330332023201320032942FF6D798AFFB
:100690000BD0001E011E021E031E002AD8B4012A20
:1006A000D8B4022AD8B4032ACAEF03F0D8B203D0D0
:1006B000EA6A9C0EE96E006A016A026A036A9C6B30
:1006C0009D6B9E6B9F6B9B519A11991198112CE019
:1006D000200EA06FD89094379537963797379C3770
:1006E0009D379E379F379B519F5D08E19A519E5DD4
:1006F00005E199519D5D02E198519C5D0FE3985190
:100700009C5F9951D8A0993D9D5F9A51D8A09A3D80
:100710009E5F9B51D8A09B3D9F5FD88000360136DD
:1007200002360336A02FD6D79CC0EFFF9DC0ECFF4A
:100730009EC0ECFF9FC0ECFF1200E9508C6F8B5104
:100740008E6F1FE0196AF2BE198EF29E8AC0A6F063
:1007500089C0A5F088C0A4F087C0A3F0AA6BA96BDC
:10076000200EA86F820EA76F53DD19BEF28E03C054
:100770008AF002C089F001C088F000C087F08E2F97
:10078000E1D78AC097F089C096F088C095F087C0FD
:1007900094F06CD703C08AF002C089F001C088F0E1
:1007A00000C087F08AAF0DD08C078C8B871F881F05
:1007B000891F8A1F872BD8B4882BD8B4892BD8B42B
:1007C0008A2B3B0E936F9A0E926FCA0E916F906BAD
:1007D0000A0E8E6F8B51D8B48C2BD882EA6A870EA2
:1007E000E96E8AC097F089C096F088C095F087C0FE
:1007F00094F093C09BF092C09AF091C099F090C091
:1008000098F054DF015000520FE18B298E5D0CE00F
:100810008C510CE00F0B8E5D01E037E28CBF35D0C0
:100820008CBD04D0200E2DD0200E8C178CAB0CD09C
:100830008C9B8B51D8A48C0700508C6F2D0E946F1D
:10084000E5DE8C51006E8C6B8B518E5D0AE10050A1
:100850008C6F2E0E946FDADE8C51006E200E8C178A
:10086000000E300E8CAB0DD08C9B8B51D8A48C0716
:1008700000508C6F2D0E946FC9DE8C51006E8C6B06
:10088000300E002600C094F0C1DED89293C097F0DD
:1008900092C096F091C095F090C094F09B6B9A6BCB
:1008A000996B0A0E986F02DF03C093F002C092F0BA
:1008B00001C091F000C090F08E2F8FD712008E0EE5
:1008C000006E8951005E8AC002F08BC001F0028E7A
:1008D000005209E0D890025202E1015204E00232D3
:1008E0000132002EF7D78AAF05D0011E021E012A61
:1008F000D8B4022AE1EF06F088C08FF08C518F1B2C
:100900008FAF05D0D894D89088BFD8802FD088C01A
:100910008FF08BC090F08751905F06E08FAF26D0AC
:10092000D850010AD86E22D08CC090F08851905FC8
:1009300006E08FAF1BD0D850010AD86E17D08DC0FB
:1009400090F08951905F06E08FAF10D0D850010A27
:10095000D86E0CD08EC090F08A51905F06E08FAFB9
:1009600005D0D850010AD86E01D0D8901200F86A8C
:10097000D09E078E0F0E1B6E920E1A6E0F0E1D6EFE
:10098000930E1C6E0F0E1F6E940E1E6E0F0E216EB8
:10099000950E206E0F0E236E960E226E0F0E256E94
:1009A000890E246E0F0E276E8A0E266E0F0E296E8C
:1009B0008B0E286E0F0E2B6E8C0E2A6E0F0E2D6E68
:1009C0008D0E2C6E0F0E2F6E800E2E6E0F0E316E52
:1009D000810E306E0F0E336E820E326E0F0E356E3C
:1009E000830E346E0F0E376E840E366E0F0E396E18
:1009F000C20E386E0F0E3B6EC10E3A6E0F0E3D6E7C
:100A0000C00E3C6E0F0E3F6EC30E3E6E0F0E416E5B
:100A1000C40E406E0F0E436EC30E426E0F0E456E37
:100A2000F20E446E0F0E476EF00E466E0F0E496EBC
:100A3000F10E486E0F0E4B6E9D0E4A6E0F0E4D6EF0
:100A4000A00E4C6E0F0E4F6ECD0E4E6E0F0E516EF1
:100A5000CA0E506E0F0E536EBD0E526E0F0E556EB7
:100A6000BA0E546E0F0E576EBE0E566E0F0E596EA6
:100A7000BE0E586E0F0E5B6EBB0E5A6E0F0E5D6E85
:100A8000BB0E5C6E0F0E5F6ECB0E5E6E0F0E616E58
:100A9000B60E606E0F0E636EAC0E626E0F0E656E5C
:100AA000AB0E646E0F0E676EB80E666E0F0E696E3B
:100AB000AF0E686E0F0E6B6EAD0E6A6E0F0E6D6E22
:100AC000AE0E6C6E716A706A6F6A6E6A950E756EA4
:100AD000BF0E746E560E736E680E726E7E6AC150D3
:100AE000C00B0F09C16E070EB46E99D41EC0E9FF8A
:100AF0001FC0EAFF020EEF6E54C0E9FF55C0EAFFC7
:100B0000F00EEF140409EF6E4CC0E9FF4DC0EAFF90
:100B1000EF804EC0E9FF4FC0EAFFEF804EC0E9FF13
:100B20004FC0EAFFEF924EC0E9FF4FC0EAFFCF0E81
:100B3000EF14EF6E4AC0E9FF4BC0EAFFEF8052C0EE
:100B4000E9FF53C0EAFFF00EEF140C09EF6E5EC030
:100B5000E9FF5FC0EAFF7E0EEF6E58C0E9FF59C0A3
:100B6000EAFF0A0EEF6E50C0E9FF51C0EAFFEF84C2
:100B70001AC0E9FF1BC0EAFF010EEF6E38C0E9FFA3
:100B800039C0EAFFEF8038C0E9FF39C0EAFFC30E81
:100B9000EF14EF6E3AC0E9FF3BC0EAFFEF983AC0AE
:100BA000E9FF3BC0EAFFEF9A3CC0E9FF3DC0EAFF26
:100BB000EF8E3CC0E9FF3DC0EAFFC70EEF142809E5
:100BC000EF6E3CC0E9FF3DC0EAFFF80EEF140509E7
:100BD000EF6E4AC0E9FF4BC0EAFFEF8C3AC0E9FF75
:100BE0003BC0EAFFF00EEF140F09EF6E1CC0E9FFE7
:100BF0001DC0EAFF010EEF6E48C0E9FF49C0EAFFE1
:100C0000EF8C44C0E9FF45C0EAFFEF8844C0E9FF2C
:100C100045C0EAFFEF8E44C0E9FF45C0EAFFEF8C14
:100C200038C0E9FF39C0EAFFEF82FA0E956FB4ECE5
:100C300001F0196AF2BE198EF29EA46BA36BA26B2F
:100C4000A10EA16F86C0A8F085C0A7F084C0A6F051
:100C500083C0A5F077EC00F019BEF28E03C08AF0D5
:100C600002C089F001C088F000C087F003C08EF098
:100C700002C08DF001C08CF000C08BF02CEF02F0B0
:100C8000196AF2BE198EF29E03C0A6F002C0A5F04A
:100C900001C0A4F000C0A3F075C0AAF074C0A9F010
:100CA00073C0A8F072C0A7F008EC01F019BEF28E74
:100CB0008A6B896B700E886F840E876F03C08EF00D
:100CC00002C08DF001C08CF000C08BF047EC02F048
:100CD00003C079F002C078F001C077F000C076F070
:100CE00071C08AF070C089F06FC088F06EC087F064
:100CF0008E6B8D6B200E8C6F810E8B6F47EC02F02C
:100D000003C08AF002C089F001C088F000C087F0FB
:100D1000196AF2BE198EF29E03C0A6F002C0A5F0B9
:100D200001C0A4F000C0A3F0AA6BA96B7C0EA86F51
:100D3000850EA76F08EC01F019BEF28E03C07DF09E
:100D400002C07CF001C07BF000C07AF0520EF66E5B
:100D5000030EF76E070E876F7ADC890EE96E79C095
:100D60008AF078C089F077C088F076C087F0020EEC
:100D70008B6FE3DC5C0EF66E030EF76E080E876F6A
:100D800066DC890EE96E7DC08AF07CC089F07BC08C
:100D900088F07AC087F0020E8B6FCFDC640E956FFF
:100DA000B4EC01F059C003F058C0E9FF59C0EAFFA4
:100DB0007DC08CF07CC08BF07BC08AF07AC089F05B
:100DC0007ED501C0EFFF7DC08AF07CC089F07BC07A
:100DD00088F07AC087F079C08EF078C08DF077C047
:100DE0008CF076C08BF088DD07E358C0E9FF59C06E
:100DF000EAFF010EEF5CEF6E79C08AF078C089F0EF
:100E000077C088F076C087F07DC08EF07CC08DF012
:100E10007BC08CF07AC08BF06FDD07E358C0E9FF30
:0E0E200059C0EAFF010EEF24EF6EFAD6030070
:020000040030CA
:0E00000000C21E1E008781000FC00FE00F40DF
:00000001FF
;PIC18F4520
;CRC=FE3A  CREATED="05-Dec-23 13:56"
