:040000002BEF02F0F0
:08000800046ED8CF05F0E0CF33
:1000100006F00001E9CF0CF0EACF07F0E1CF08F0DD
:10002000E2CF09F0D9CF0AF0DACF0BF0F3CF12F01C
:10003000F4CF13F0FACF14F0F5CF15F0F6CF16F099
:10004000F7CF17F000C00EF001C00FF002C010F0A3
:1000500003C011F09DAC30EF00F09EBCF7EF00F054
:100060000EC000F00FC001F010C002F011C003F08C
:100070000CC0E9FF07C0EAFF078E08C0E1FF09C016
:10008000E2FF0AC0D9FF0BC0DAFF12C0F3FF13C0B2
:10009000F4FF14C0FAFF15C0F5FF16C0F6FF17C035
:1000A000F7FF045006C0E0FF05C0D8FF1000F76A54
:1000B000BE0FF66E000EF7220900F55012002C0F4D
:1000C00001068E0E006E62C001F061C002F0036A8C
:1000D000015209E102C001F0026A080E005E0152FD
:1000E00002E1006A08D0D89001BE04D00236013681
:1000F0000006F9D7019E03EF01F06150D8B471D02A
:10010000006E6550D8B46DD0002604E3810E002641
:1001100068E204D07F0E005E64E363E062C069F0D1
:100120006650691A628E668E64506802F4CF6BF076
:1001300063506702F4CF03F0F3CF6AF06802F35024
:100140006B26F4506A22000E032264506702F350BB
:100150006B26F4506A22000E026A032202226250C9
:100160006802F3506A26F4500322000E0222625005
:100170006702F3500326F4500222000E016A0122A6
:1001800064506602F3506A26F4500322000E0222E5
:10019000012263506602F3500326F4500222000E3F
:1001A000012262506602F3500226F4500122002A16
:1001B00001BE05D06A360336023601360006000E4F
:1001C0006AAE0AD0032A02220122015005E1025040
:1001D00003E1035001E1002A69BE018E69AE019E70
:1001E00004D0006A016A026A036A14EF01F03EC09B
:1001F00003F03DC0E9FF3EC0EAFFECCF62F0ED52F4
:10020000EFCF61F05ED703C064F002C063F001C0BD
:1002100062F000C061F00A0E686E280E676E200E54
:10022000666E770E656E69D703C050F002C04FF05E
:1002300001C04EF000C04DF09E9C30EF00F00C531A
:10024000573100000C53573200000C535733000055
:100250000C53573400000C50756C73617220756E2E
:1002600020626F746F6E0000EA6A560EE96EEF50FE
:100270000DE0060E016E006A002EFED7012EFBD7A0
:100280007B0E006E002EFED7EF2EF3D712005D38E6
:10029000F00B006E0F0E83140010836E000083803D
:1002A000030E006E002EFED783901200F00E956EA6
:1002B000838400008380000083380F0B5D6E839081
:1002C0000000838000D000D0000083380F0B5C6EEC
:1002D0008390000E956E5D38006EF00E0016005093
:1002E0005C10016E76EF01F08392E0D701C05CF004
:1002F00001BEFBD75AA083925AB083820000839438
:10030000000083905B385C6E0F0E5C165CC05DF085
:10031000BEDF5B500F0B5C6E5D6EB9DF1200000E2E
:10032000956E2D0E566EA0DF839283948390020EFD
:100330005D6EADDF536A535003080CE3036A5350FC
:10034000B6DE546E5A6A5B6ECFDF050E566E8CDFDA
:10035000532AF1D7A3EF02F054C05BF058505B1A58
:100360005BAE05D0D894D89054BED8802FD054C05E
:100370005BF057C05CF053505C5E06E05BAE26D08D
:10038000D850010AD86E22D058C05CF054505C5E40
:1003900006E05BAE1BD0D850010AD86E17D059C00A
:1003A0005CF055505C5E06E05BAE10D0D850010AA0
:1003B000D86E0CD05AC05CF056505C5E06E05BAE66
:1003C00005D0D850010AD86E01D0D8901200572C11
:1003D00001D003D0400E586E01D0586A010E565C11
:1003E000582658508009596E5A6A5B6E7DDF19EFA6
:1003F00002F055500C0A05E0060A0BE0020A0FE075
:1004000013D05A6A010E5B6E6FDF020E566E2CDF40
:1004100010D0010E566E020E576ED9D70AD05A6A06
:10042000100E5B6E61DF05D0010E5A6E55C05BF099
:100430005BDF25EF02F00900F5520CE0F6CF53F038
:10044000F7CF54F0F5CF55F0D4D753C0F6FF54C0D2
:10045000F7FFF1D71200F86AD09E078E0F0E1A6EC2
:10046000920E196E0F0E1C6E930E1B6E0F0E1E6EEB
:10047000940E1D6E0F0E206E950E1F6E0F0E226EC7
:10048000960E216E0F0E246E890E236E0F0E266EB1
:100490008A0E256E0F0E286E8B0E276E0F0E2A6E9B
:1004A0008C0E296E0F0E2C6E8D0E2B6E0F0E2E6E77
:1004B000800E2D6E0F0E306E810E2F6E0F0E326E6F
:1004C000820E316E0F0E346E830E336E0F0E366E4B
:1004D000840E356E0F0E386EC20E376E0F0E3A6EEA
:1004E000C10E396E0F0E3C6EC00E3B6E0F0E3E6E8F
:1004F000C30E3D6E0F0E406EC40E3F6E0F0E426E69
:10050000C30E416E0F0E446EF20E436E0F0E466E1A
:10051000F00E456E0F0E486EF10E476E0F0E4A6ECE
:100520009D0E496E0F0E4C6ECD0E4B6E506A4F6A8B
:100530004E6A4D6A526A516AC150C00B0F09C16EB2
:10054000070EB46EECD619C0E9FF1AC0EAFF010E1F
:10055000EF6E39C0E9FF3AC0EAFFF00EEF140E0962
:10056000EF6E37C0E9FF38C0EAFFEF8037C0E9FF20
:1005700038C0EAFFC30EEF14EF6E39C0E9FF3AC08E
:10058000EAFFEF9839C0E9FF3AC0EAFFEF9A3BC0B3
:10059000E9FF3CC0EAFFEF8E3BC0E9FF3CC0EAFF49
:1005A000C70EEF142809EF6E3BC0E9FF3CC0EAFF1D
:1005B000F80EEF140509EF6E49C0E9FF4AC0EAFFE3
:1005C000EF8C43C0E9FF44C0EAFFEF8C43C0E9FF72
:1005D00044C0EAFFEF8E37C0E9FF38C0EAFFEF8280
:1005E000FA0E566E41DE1F0E566E850E556E4B0E80
:1005F000546E800E536E50C05AF04FC059F04EC02A
:1006000058F04DC057F0A8DE18E350C056F04FC068
:1006100055F04EC054F04DC053F0CD0E5A6ECC0E76
:10062000596E4C0E586E800E576E96DE06E33E0EE7
:10063000F66E020EF76EFFDE7ED0330E566E556EEE
:10064000546E800E536E50C05AF04FC059F04EC0D9
:1006500058F04DC057F080DE18E350C056F04FC040
:1006600055F04EC054F04DC053F09A0E5A6E990E8C
:10067000596E390E586E800E576E6EDE06E3440ECC
:10068000F66E020EF76ED7DE56D0330E566E556EEE
:10069000130E546E800E536E50C05AF04FC059F076
:1006A0004EC058F04DC057F057DE18E350C056F01A
:1006B0004FC055F04EC054F04DC053F09A0E5A6ED4
:1006C000990E596E190E586E800E576E45DE06E370
:1006D0004A0EF66E020EF76EAEDE2DD0566A556AE1
:1006E000400E546E7F0E536E50C05AF04FC059F0FA
:1006F0004EC058F04DC057F02FDE18E350C056F0F2
:100700004FC055F04EC054F04DC053F0CD0E5A6E50
:10071000CC0E596E4C0E586E7F0E576E1DDE06E3E2
:10072000500EF66E020EF76E86DE05D0560EF66E91
:0A073000020EF76E80DE4FD70300C3
:020000040030CA
:0E00000000C21E1E008781000FC00FE00F40DF
:00000001FF
;PIC18F4520
;CRC=B241  CREATED="24-Oct-23 13:51"
