:040000005BEF00F0C2
:08000800046ED8CF05F0E0CF33
:1000100006F00001E9CF0CF0EACF07F0E1CF08F0DD
:10002000E2CF09F0D9CF0AF0DACF0BF0F3CF12F01C
:10003000F4CF13F0FACF14F0F5CF15F0F6CF16F099
:10004000F7CF17F000C00EF001C00FF002C010F0A3
:1000500003C011F0F2A830EF00F0F2B257EF00F059
:100060000EC000F00FC001F010C002F011C003F08C
:100070000CC0E9FF07C0EAFF078E08C0E1FF09C016
:10008000E2FF0AC0D9FF0BC0DAFF12C0F3FF13C0B2
:10009000F4FF14C0FAFF15C0F5FF16C0F6FF17C035
:1000A000F7FF045006C0E0FF05C0D8FF10003F2A4C
:1000B000F29230EF00F0F86AD09E078E0F0E1A6EA3
:1000C000920E196E0F0E1C6E930E1B6E0F0E1E6E8F
:1000D000940E1D6E0F0E206E950E1F6E0F0E226E6B
:1000E000960E216E0F0E246E890E236E0F0E266E55
:1000F0008A0E256E0F0E286E8B0E276E0F0E2A6E3F
:100100008C0E296E0F0E2C6E8D0E2B6E0F0E2E6E1A
:10011000800E2D6E0F0E306E810E2F6E0F0E326E12
:10012000820E316E0F0E346E830E336E0F0E366EEE
:10013000840E356E0F0E386EC10E376E0F0E3A6E8E
:10014000F20E396E0F0E3C6EF00E3B6E0F0E3E6ED1
:10015000F10E3D6E010E3F6EC150C00B0F09C16E16
:10016000070EB46E1DC0E9FF1EC0EAFFEF6A37C07C
:10017000E9FF38C0EAFFF00EEF140F09EF6E1BC065
:10018000E9FF1CC0EAFF010EEF6E3DC0E9FF3EC073
:10019000EAFFEF8C39C0E9FF3AC0EAFFEF8839C0C7
:1001A000E9FF3AC0EAFFEF8C39C0E9FF3AC0EAFF45
:1001B000EF8E010E3F5CFC0F1EE2040F02EF01F018
:1001C00027C0E9FF28C0EAFF1F0EEF6E14D027C03A
:1001D000E9FF28C0EAFF2F0EEF6E0DD027C0E9FF20
:1001E00028C0EAFF4F0EEF6E06D027C0E9FF28C0F7
:1001F000EAFF8F0EEF6E3F50050802E1010E3F6EE1
:10020000D8D70300E824F76AF7361F0FF66E020E00
:10021000F7220A00F550FA6E0800F550F96EC00199
:06022000CE01DC01EA0141
:020000040030CA
:0E00000000C21E1E008781000FC00FE00F40DF
:00000001FF
;PIC18F4520
;CRC=E57A  CREATED="20-Sep-23 13:33"
