:0400000074EF00F0A9
:08000800046ED8CF05F0E0CF33
:1000100006F00001E9CF0CF0EACF07F0E1CF08F0DD
:10002000E2CF09F0D9CF0AF0DACF0BF0F3CF12F01C
:10003000F4CF13F0FACF14F000C00EF001C00FF0AF
:1000400002C010F003C011F0F2A82AEF00F0F2B2E3
:100050004BEF00F00EC000F00FC001F010C002F036
:1000600011C003F00CC0E9FF07C0EAFF078E08C00B
:10007000E1FF09C0E2FF0AC0D9FF0BC0DAFF12C0DE
:10008000F3FF13C0F4FF14C0FAFF045006C0E0FFF2
:1000900005C0D8FF10003C2AF2922AEF00F03A5037
:1000A000016E3BC003F03E6E3BC03FF03DB006D05A
:1000B0003FC0EAFF3EC0E9FFEF9A05D03FC0EAFF2C
:1000C0003EC0E9FFEF8A3850E96E39C0EAFFEF869B
:1000D00036C0E9FF37C0EAFFEF8C36C0E9FF37C012
:1000E000EAFFEF8EE1EF00F0F86AD09E078E0F0E68
:1000F000176E920E166E0F0E196E930E186E0F0E6F
:100100001B6E940E1A6E0F0E1D6E950E1C6E0F0E4A
:100110001F6E960E1E6E0F0E216E890E206E0F0E34
:10012000236E8A0E226E0F0E256E8B0E246E0F0E1E
:10013000276E8C0E266E0F0E296E8D0E286E0F0EFA
:100140002B6E800E2A6E0F0E2D6E810E2C6E0F0EF2
:100150002F6E820E2E6E0F0E316E830E306E0F0ECE
:10016000336E840E326E0F0E356EC10E346E0F0E6E
:10017000376EF20E366E0F0E396EF00E386E0F0EB1
:100180003B6EF10E3A6E010E3C6EC150C00B0F0972
:10019000C16E070EB46E1AC0E9FF1BC0EAFFEF6A1A
:1001A00034C0E9FF35C0EAFFF00EEF140F09EF6E1F
:1001B00018C0E9FF19C0EAFF020EEF6E010E3D6E96
:1001C0006ED7010E3C5CFC0F1EE2040F0AEF01F03B
:1001D00024C0E9FF25C0EAFF1F0EEF6E14D024C033
:1001E000E9FF25C0EAFF2F0EEF6E0DD024C0E9FF16
:1001F00025C0EAFF4F0EEF6E06D024C0E9FF25C0F0
:10020000EAFF8F0EEF6E3C50050802E1010E3C6ED6
:10021000D8D70300F2CF0DF0F29EE824F76AF73644
:10022000390FF66E020EF7220A00F550FA6E08003A
:10023000F5500DBEF28EF96ED001DE01EC01FA012F
:020000040030CA
:0E00000000C21E1E008781000FC00FE00F40DF
:00000001FF
;PIC18F4520
;CRC=AE72  CREATED="20-Sep-23 20:33"
